{
  "_format": "hh-sol-artifact-1",
  "contractName": "SimpleSwap",
  "sourceName": "contracts/SimpleSwap.sol",
  "abi": [
    {
      "inputs": [
        {
          "internalType": "address",
          "name": "initialOwner",
          "type": "address"
        }
      ],
      "stateMutability": "nonpayable",
      "type": "constructor"
    },
    {
      "inputs": [
        {
          "internalType": "address",
          "name": "spender",
          "type": "address"
        },
        {
          "internalType": "uint256",
          "name": "allowance",
          "type": "uint256"
        },
        {
          "internalType": "uint256",
          "name": "needed",
          "type": "uint256"
        }
      ],
      "name": "ERC20InsufficientAllowance",
      "type": "error"
    },
    {
      "inputs": [
        {
          "internalType": "address",
          "name": "sender",
          "type": "address"
        },
        {
          "internalType": "uint256",
          "name": "balance",
          "type": "uint256"
        },
        {
          "internalType": "uint256",
          "name": "needed",
          "type": "uint256"
        }
      ],
      "name": "ERC20InsufficientBalance",
      "type": "error"
    },
    {
      "inputs": [
        {
          "internalType": "address",
          "name": "approver",
          "type": "address"
        }
      ],
      "name": "ERC20InvalidApprover",
      "type": "error"
    },
    {
      "inputs": [
        {
          "internalType": "address",
          "name": "receiver",
          "type": "address"
        }
      ],
      "name": "ERC20InvalidReceiver",
      "type": "error"
    },
    {
      "inputs": [
        {
          "internalType": "address",
          "name": "sender",
          "type": "address"
        }
      ],
      "name": "ERC20InvalidSender",
      "type": "error"
    },
    {
      "inputs": [
        {
          "internalType": "address",
          "name": "spender",
          "type": "address"
        }
      ],
      "name": "ERC20InvalidSpender",
      "type": "error"
    },
    {
      "inputs": [
        {
          "internalType": "address",
          "name": "owner",
          "type": "address"
        }
      ],
      "name": "OwnableInvalidOwner",
      "type": "error"
    },
    {
      "inputs": [
        {
          "internalType": "address",
          "name": "account",
          "type": "address"
        }
      ],
      "name": "OwnableUnauthorizedAccount",
      "type": "error"
    },
    {
      "inputs": [
        {
          "internalType": "address",
          "name": "token",
          "type": "address"
        }
      ],
      "name": "SafeERC20FailedOperation",
      "type": "error"
    },
    {
      "inputs": [],
      "name": "SimpleSwap__EthTransferFailed",
      "type": "error"
    },
    {
      "inputs": [],
      "name": "SimpleSwap__Expired",
      "type": "error"
    },
    {
      "inputs": [],
      "name": "SimpleSwap__IdenticalTokens",
      "type": "error"
    },
    {
      "inputs": [],
      "name": "SimpleSwap__InsufficientAllowance",
      "type": "error"
    },
    {
      "inputs": [],
      "name": "SimpleSwap__InsufficientAmountA",
      "type": "error"
    },
    {
      "inputs": [],
      "name": "SimpleSwap__InsufficientAmountB",
      "type": "error"
    },
    {
      "inputs": [],
      "name": "SimpleSwap__InsufficientBalance",
      "type": "error"
    },
    {
      "inputs": [],
      "name": "SimpleSwap__InsufficientLiquidity",
      "type": "error"
    },
    {
      "inputs": [],
      "name": "SimpleSwap__InsufficientOutputAmount",
      "type": "error"
    },
    {
      "inputs": [],
      "name": "SimpleSwap__InvalidLiquidity",
      "type": "error"
    },
    {
      "inputs": [],
      "name": "SimpleSwap__InvalidPath",
      "type": "error"
    },
    {
      "inputs": [],
      "name": "SimpleSwap__NoEthToWithdraw",
      "type": "error"
    },
    {
      "inputs": [],
      "name": "SimpleSwap__NoTokensToRecover",
      "type": "error"
    },
    {
      "inputs": [],
      "name": "SimpleSwap__TokenNotInPair",
      "type": "error"
    },
    {
      "inputs": [],
      "name": "SimpleSwap__ZeroInitialLiquidity",
      "type": "error"
    },
    {
      "inputs": [],
      "name": "SimpleSwap__ZeroInputAmount",
      "type": "error"
    },
    {
      "anonymous": false,
      "inputs": [
        {
          "indexed": true,
          "internalType": "address",
          "name": "owner",
          "type": "address"
        },
        {
          "indexed": true,
          "internalType": "address",
          "name": "spender",
          "type": "address"
        },
        {
          "indexed": false,
          "internalType": "uint256",
          "name": "value",
          "type": "uint256"
        }
      ],
      "name": "Approval",
      "type": "event"
    },
    {
      "anonymous": false,
      "inputs": [
        {
          "indexed": true,
          "internalType": "address",
          "name": "sender",
          "type": "address"
        },
        {
          "indexed": true,
          "internalType": "address",
          "name": "tokenA",
          "type": "address"
        },
        {
          "indexed": true,
          "internalType": "address",
          "name": "tokenB",
          "type": "address"
        },
        {
          "indexed": false,
          "internalType": "uint256",
          "name": "amountA",
          "type": "uint256"
        },
        {
          "indexed": false,
          "internalType": "uint256",
          "name": "amountB",
          "type": "uint256"
        },
        {
          "indexed": false,
          "internalType": "uint256",
          "name": "liquidity",
          "type": "uint256"
        }
      ],
      "name": "LiquidityAdded",
      "type": "event"
    },
    {
      "anonymous": false,
      "inputs": [
        {
          "indexed": true,
          "internalType": "address",
          "name": "sender",
          "type": "address"
        },
        {
          "indexed": true,
          "internalType": "address",
          "name": "tokenA",
          "type": "address"
        },
        {
          "indexed": true,
          "internalType": "address",
          "name": "tokenB",
          "type": "address"
        },
        {
          "indexed": false,
          "internalType": "uint256",
          "name": "amountA",
          "type": "uint256"
        },
        {
          "indexed": false,
          "internalType": "uint256",
          "name": "amountB",
          "type": "uint256"
        },
        {
          "indexed": false,
          "internalType": "uint256",
          "name": "liquidity",
          "type": "uint256"
        }
      ],
      "name": "LiquidityRemoved",
      "type": "event"
    },
    {
      "anonymous": false,
      "inputs": [
        {
          "indexed": true,
          "internalType": "address",
          "name": "previousOwner",
          "type": "address"
        },
        {
          "indexed": true,
          "internalType": "address",
          "name": "newOwner",
          "type": "address"
        }
      ],
      "name": "OwnershipTransferred",
      "type": "event"
    },
    {
      "anonymous": false,
      "inputs": [
        {
          "indexed": true,
          "internalType": "address",
          "name": "sender",
          "type": "address"
        },
        {
          "indexed": true,
          "internalType": "address",
          "name": "tokenIn",
          "type": "address"
        },
        {
          "indexed": true,
          "internalType": "address",
          "name": "tokenOut",
          "type": "address"
        },
        {
          "indexed": false,
          "internalType": "uint256",
          "name": "amountIn",
          "type": "uint256"
        },
        {
          "indexed": false,
          "internalType": "uint256",
          "name": "amountOut",
          "type": "uint256"
        },
        {
          "indexed": false,
          "internalType": "address",
          "name": "to",
          "type": "address"
        }
      ],
      "name": "Swapped",
      "type": "event"
    },
    {
      "anonymous": false,
      "inputs": [
        {
          "indexed": true,
          "internalType": "address",
          "name": "from",
          "type": "address"
        },
        {
          "indexed": true,
          "internalType": "address",
          "name": "to",
          "type": "address"
        },
        {
          "indexed": false,
          "internalType": "uint256",
          "name": "value",
          "type": "uint256"
        }
      ],
      "name": "Transfer",
      "type": "event"
    },
    {
      "inputs": [],
      "name": "MINIMUM_LIQUIDITY",
      "outputs": [
        {
          "internalType": "uint256",
          "name": "",
          "type": "uint256"
        }
      ],
      "stateMutability": "view",
      "type": "function"
    },
    {
      "inputs": [
        {
          "internalType": "address",
          "name": "tokenA",
          "type": "address"
        },
        {
          "internalType": "address",
          "name": "tokenB",
          "type": "address"
        },
        {
          "internalType": "uint256",
          "name": "amountADesired",
          "type": "uint256"
        },
        {
          "internalType": "uint256",
          "name": "amountBDesired",
          "type": "uint256"
        },
        {
          "internalType": "uint256",
          "name": "amountAMin",
          "type": "uint256"
        },
        {
          "internalType": "uint256",
          "name": "amountBMin",
          "type": "uint256"
        },
        {
          "internalType": "address",
          "name": "to",
          "type": "address"
        },
        {
          "internalType": "uint256",
          "name": "deadline",
          "type": "uint256"
        }
      ],
      "name": "addLiquidity",
      "outputs": [
        {
          "internalType": "uint256",
          "name": "amountA",
          "type": "uint256"
        },
        {
          "internalType": "uint256",
          "name": "amountB",
          "type": "uint256"
        },
        {
          "internalType": "uint256",
          "name": "liquidity",
          "type": "uint256"
        }
      ],
      "stateMutability": "nonpayable",
      "type": "function"
    },
    {
      "inputs": [
        {
          "internalType": "address",
          "name": "owner",
          "type": "address"
        },
        {
          "internalType": "address",
          "name": "spender",
          "type": "address"
        }
      ],
      "name": "allowance",
      "outputs": [
        {
          "internalType": "uint256",
          "name": "",
          "type": "uint256"
        }
      ],
      "stateMutability": "view",
      "type": "function"
    },
    {
      "inputs": [
        {
          "internalType": "address",
          "name": "spender",
          "type": "address"
        },
        {
          "internalType": "uint256",
          "name": "value",
          "type": "uint256"
        }
      ],
      "name": "approve",
      "outputs": [
        {
          "internalType": "bool",
          "name": "",
          "type": "bool"
        }
      ],
      "stateMutability": "nonpayable",
      "type": "function"
    },
    {
      "inputs": [
        {
          "internalType": "address",
          "name": "account",
          "type": "address"
        }
      ],
      "name": "balanceOf",
      "outputs": [
        {
          "internalType": "uint256",
          "name": "",
          "type": "uint256"
        }
      ],
      "stateMutability": "view",
      "type": "function"
    },
    {
      "inputs": [],
      "name": "decimals",
      "outputs": [
        {
          "internalType": "uint8",
          "name": "",
          "type": "uint8"
        }
      ],
      "stateMutability": "view",
      "type": "function"
    },
    {
      "inputs": [
        {
          "internalType": "uint256",
          "name": "amountIn",
          "type": "uint256"
        },
        {
          "internalType": "uint256",
          "name": "reserveIn",
          "type": "uint256"
        },
        {
          "internalType": "uint256",
          "name": "reserveOut",
          "type": "uint256"
        }
      ],
      "name": "getAmountOut",
      "outputs": [
        {
          "internalType": "uint256",
          "name": "amountOut",
          "type": "uint256"
        }
      ],
      "stateMutability": "pure",
      "type": "function"
    },
    {
      "inputs": [
        {
          "internalType": "address",
          "name": "tokenA",
          "type": "address"
        },
        {
          "internalType": "address",
          "name": "tokenB",
          "type": "address"
        }
      ],
      "name": "getPrice",
      "outputs": [
        {
          "internalType": "uint256",
          "name": "price",
          "type": "uint256"
        }
      ],
      "stateMutability": "view",
      "type": "function"
    },
    {
      "inputs": [
        {
          "internalType": "address",
          "name": "_tokenA",
          "type": "address"
        },
        {
          "internalType": "address",
          "name": "_tokenB",
          "type": "address"
        }
      ],
      "name": "getReserves",
      "outputs": [
        {
          "internalType": "uint256",
          "name": "reserveA",
          "type": "uint256"
        },
        {
          "internalType": "uint256",
          "name": "reserveB",
          "type": "uint256"
        }
      ],
      "stateMutability": "view",
      "type": "function"
    },
    {
      "inputs": [],
      "name": "name",
      "outputs": [
        {
          "internalType": "string",
          "name": "",
          "type": "string"
        }
      ],
      "stateMutability": "view",
      "type": "function"
    },
    {
      "inputs": [],
      "name": "owner",
      "outputs": [
        {
          "internalType": "address",
          "name": "",
          "type": "address"
        }
      ],
      "stateMutability": "view",
      "type": "function"
    },
    {
      "inputs": [
        {
          "internalType": "address",
          "name": "tokenA",
          "type": "address"
        },
        {
          "internalType": "address",
          "name": "tokenB",
          "type": "address"
        },
        {
          "internalType": "address",
          "name": "tokenToRecover",
          "type": "address"
        }
      ],
      "name": "recoverERC20",
      "outputs": [],
      "stateMutability": "nonpayable",
      "type": "function"
    },
    {
      "inputs": [
        {
          "internalType": "address",
          "name": "tokenA",
          "type": "address"
        },
        {
          "internalType": "address",
          "name": "tokenB",
          "type": "address"
        },
        {
          "internalType": "uint256",
          "name": "liquidity",
          "type": "uint256"
        },
        {
          "internalType": "uint256",
          "name": "amountAMin",
          "type": "uint256"
        },
        {
          "internalType": "uint256",
          "name": "amountBMin",
          "type": "uint256"
        },
        {
          "internalType": "address",
          "name": "to",
          "type": "address"
        },
        {
          "internalType": "uint256",
          "name": "deadline",
          "type": "uint256"
        }
      ],
      "name": "removeLiquidity",
      "outputs": [
        {
          "internalType": "uint256",
          "name": "amountA",
          "type": "uint256"
        },
        {
          "internalType": "uint256",
          "name": "amountB",
          "type": "uint256"
        }
      ],
      "stateMutability": "nonpayable",
      "type": "function"
    },
    {
      "inputs": [],
      "name": "renounceOwnership",
      "outputs": [],
      "stateMutability": "nonpayable",
      "type": "function"
    },
    {
      "inputs": [
        {
          "internalType": "address",
          "name": "",
          "type": "address"
        },
        {
          "internalType": "address",
          "name": "",
          "type": "address"
        }
      ],
      "name": "reserves",
      "outputs": [
        {
          "internalType": "uint256",
          "name": "reserveA",
          "type": "uint256"
        },
        {
          "internalType": "uint256",
          "name": "reserveB",
          "type": "uint256"
        }
      ],
      "stateMutability": "view",
      "type": "function"
    },
    {
      "inputs": [
        {
          "internalType": "uint256",
          "name": "amountIn",
          "type": "uint256"
        },
        {
          "internalType": "uint256",
          "name": "amountOutMin",
          "type": "uint256"
        },
        {
          "internalType": "address[]",
          "name": "path",
          "type": "address[]"
        },
        {
          "internalType": "address",
          "name": "to",
          "type": "address"
        },
        {
          "internalType": "uint256",
          "name": "deadline",
          "type": "uint256"
        }
      ],
      "name": "swapExactTokensForTokens",
      "outputs": [],
      "stateMutability": "nonpayable",
      "type": "function"
    },
    {
      "inputs": [],
      "name": "symbol",
      "outputs": [
        {
          "internalType": "string",
          "name": "",
          "type": "string"
        }
      ],
      "stateMutability": "view",
      "type": "function"
    },
    {
      "inputs": [],
      "name": "totalSupply",
      "outputs": [
        {
          "internalType": "uint256",
          "name": "",
          "type": "uint256"
        }
      ],
      "stateMutability": "view",
      "type": "function"
    },
    {
      "inputs": [
        {
          "internalType": "address",
          "name": "to",
          "type": "address"
        },
        {
          "internalType": "uint256",
          "name": "value",
          "type": "uint256"
        }
      ],
      "name": "transfer",
      "outputs": [
        {
          "internalType": "bool",
          "name": "",
          "type": "bool"
        }
      ],
      "stateMutability": "nonpayable",
      "type": "function"
    },
    {
      "inputs": [
        {
          "internalType": "address",
          "name": "from",
          "type": "address"
        },
        {
          "internalType": "address",
          "name": "to",
          "type": "address"
        },
        {
          "internalType": "uint256",
          "name": "value",
          "type": "uint256"
        }
      ],
      "name": "transferFrom",
      "outputs": [
        {
          "internalType": "bool",
          "name": "",
          "type": "bool"
        }
      ],
      "stateMutability": "nonpayable",
      "type": "function"
    },
    {
      "inputs": [
        {
          "internalType": "address",
          "name": "newOwner",
          "type": "address"
        }
      ],
      "name": "transferOwnership",
      "outputs": [],
      "stateMutability": "nonpayable",
      "type": "function"
    },
    {
      "inputs": [],
      "name": "withdrawETH",
      "outputs": [],
      "stateMutability": "nonpayable",
      "type": "function"
    },
    {
      "stateMutability": "payable",
      "type": "receive"
    }
  ],
  "bytecode": "0x608060405234610381576118a36020813803918261001c81610386565b93849283398101031261038157516001600160a01b03811690819003610381576100466040610386565b90601282527129b4b6b83632a9bbb0b81026282a37b5b2b760711b60208301526100706040610386565b90600382526213141560ea1b6020830152801561036b57600080546001600160a01b03198116831782556001600160a01b0316907f8be0079c531659141344cd1fd0a4f28419497f9722a3daafe3b4186f6b6457e09080a381516001600160401b03811161027657600454600181811c91168015610361575b602082101461025657601f81116102fc575b50602092601f8211600114610297579281929360009261028c575b50508160011b916000199060031b1c1916176004555b80516001600160401b03811161027657600554600181811c9116801561026c575b602082101461025657601f811161020d575b50602091601f82116001146101a95791819260009261019e575b50508160011b916000199060031b1c1916176005555b6040516114f790816103ac8239f35b015190503880610179565b601f198216926005600052806000209160005b8581106101f5575083600195106101dc575b505050811b0160055561018f565b015160001960f88460031b161c191690553880806101ce565b919260206001819286850151815501940192016101bc565b60056000526020600020601f830160051c8101916020841061024c575b601f0160051c01905b818110610240575061015f565b60008155600101610233565b909150819061022a565b634e487b7160e01b600052602260045260246000fd5b90607f169061014d565b634e487b7160e01b600052604160045260246000fd5b015190503880610116565b601f198216936004600052806000209160005b8681106102e457508360019596106102cb575b505050811b0160045561012c565b015160001960f88460031b161c191690553880806102bd565b919260206001819286850151815501940192016102aa565b60046000527f8a35acfbc15ff81a39ae7d344fd709f28e8600b4aa8c65c6b64bfe7fe36bd19b601f830160051c81019160208410610357575b601f0160051c01905b81811061034b57506100fb565b6000815560010161033e565b9091508190610335565b90607f16906100e9565b631e4fbdf760e01b600052600060045260246000fd5b600080fd5b6040519190601f01601f191682016001600160401b038111838210176102765760405256fe6080604052600436101561001b575b361561001957600080fd5b005b60003560e01c8063054d50d414610f6957806306fdde0314610eaa578063095ea7b314610e2457806318160ddd14610e0657806323b872dd14610d19578063313ce56714610cfd57806338ed173914610b8a5780633b72ab3414610a2557806370a08231146109eb578063715018a6146109925780638da5cb5b1461096957806395d89b4114610865578063a9059cbb14610834578063ac41865a146107dd578063ba9a7a56146107c0578063baa2abde146105cf578063d52bb6f414610597578063dd62ed3e14610546578063e086e5ec14610497578063e8e33700146101ff578063ea4afc54146101a05763f2fde38b0361000e573461019b57602036600319011261019b5761012b610fd6565b6101336112e9565b6001600160a01b0316801561018557600080546001600160a01b03198116831782556001600160a01b0316907f8be0079c531659141344cd1fd0a4f28419497f9722a3daafe3b4186f6b6457e09080a3005b631e4fbdf760e01b600052600060045260246000fd5b600080fd5b3461019b57604036600319011261019b576101b9610fd6565b6101c1610fec565b9060018060a01b0316600052600660205260406000209060018060a01b03166000526020526040806000206001815491015482519182526020820152f35b3461019b5761010036600319011261019b57610219610fd6565b610221610fec565b6044359160c4356001600160a01b03811691906064359083900361019b5760e435421161048657610252848361116c565b9460035492600083158061047e575b1561040d575096955b6001600160a01b03851692610281883033876111db565b6001600160a01b038316946102988a3033896111db565b806103e1575050506102b26102ad8888611002565b61139f565b6103e88111156103d0576103e71981019081116103ba57935b84156103a9578515610393578661033692899261038f986102ee89600354611015565b600355806000526001602052604060002089815401905560007fddf252ad1be2c89b69c2b068fc378daa952ba7f163c4a11628f55a4df523b3ef60206040518c8152a3611242565b604080518681526020810188905290810184905233907f43c967b388d3a4ccad3f7ab80167852e322e5a3fde9893f530252281b2ae8b7090606090a4604051938493846040919493926060820195825260208201520152565b0390f35b63ec442f0560e01b600052600060045260246000fd5b632f6985ef60e21b60005260046000fd5b634e487b7160e01b600052601160045260246000fd5b636bf6e15960e11b60005260046000fd5b610407926103fb6103f5610401938c611002565b82611002565b92611002565b90611022565b936102cb565b6104208461041b8a8c611002565b611022565b9180831161044b57505060a435811061043a57969561026a565b631f4adc8160e11b60005260046000fd5b9150975061045d8761041b8584611002565b97608435891061046f5750969561026a565b63322f3f8f60e11b8152600490fd5b508715610261565b63bb1a9a5f60e01b60005260046000fd5b3461019b57600036600319011261019b576104b06112e9565b4780156105355760008080809360018060a01b038254165af13d15610530573d67ffffffffffffffff811161051a57604051906104f7601f8201601f191660200183611089565b8152600060203d92013e5b1561050957005b6309253de360e01b60005260046000fd5b634e487b7160e01b600052604160045260246000fd5b610502565b63566143ef60e11b60005260046000fd5b3461019b57604036600319011261019b5761055f610fd6565b610567610fec565b6001600160a01b039182166000908152600260209081526040808320949093168252928352819020549051908152f35b3461019b57604036600319011261019b5760406105c36105b5610fd6565b6105bd610fec565b9061116c565b82519182526020820152f35b3461019b5760e036600319011261019b576105e8610fd6565b6105f0610fec565b60443560a4356001600160a01b038116810361019b5760c435421161048657811580156107a9575b610798578261064861041b61041b610633610641978961116c565b979060035493849189611002565b9686611002565b92606435851061078757608435841061043a573315610771576000953387526001602052604087205496828810610756576107059186918460409a3383526001602052038a822055846003540360035589518581527fddf252ad1be2c89b69c2b068fc378daa952ba7f163c4a11628f55a4df523b3ef60203392a36106e06106cf896110bf565b6106d8846110bf565b908784611242565b6001600160a01b0316936106f58887876112ae565b6001600160a01b031694856112ae565b7fd765e08eef31c0983ecca03ecd166297ac485ecd5dd69e291c848f0a020333c18651806107473394888a846040919493926060820195825260208201520152565b0390a482519182526020820152f35b606490838963391434e360e21b835233600452602452604452fd5b634b637e8f60e11b600052600060045260246000fd5b63322f3f8f60e11b60005260046000fd5b637b26089360e01b60005260046000fd5b503360005260016020526040600020548211610618565b3461019b57600036600319011261019b5760206040516103e88152f35b3461019b57604036600319011261019b576107f96105b5610fd6565b81156103a957670de0b6b3a7640000810290808204670de0b6b3a764000014901517156103ba5760209161082c91611022565b604051908152f35b3461019b57604036600319011261019b5761085a610850610fd6565b60243590336110d0565b602060405160018152f35b3461019b57600036600319011261019b5760405160006005548060011c9060018116801561095f575b60208310811461094b5782855290811561092757506001146108c7575b61038f836108bb81850382611089565b60405191829182610f8d565b91905060056000527f036b6384b5eca791c62761152d0c79bb0604c104a5fb6f4eb0703f3154bb3db0916000905b80821061090d575090915081016020016108bb6108ab565b9192600181602092548385880101520191019092916108f5565b60ff191660208086019190915291151560051b840190910191506108bb90506108ab565b634e487b7160e01b84526022600452602484fd5b91607f169161088e565b3461019b57600036600319011261019b576000546040516001600160a01b039091168152602090f35b3461019b57600036600319011261019b576109ab6112e9565b600080546001600160a01b0319811682556001600160a01b03167f8be0079c531659141344cd1fd0a4f28419497f9722a3daafe3b4186f6b6457e08280a3005b3461019b57602036600319011261019b576001600160a01b03610a0c610fd6565b1660005260016020526020604060002054604051908152f35b3461019b57606036600319011261019b57610a3e610fd6565b610a46610fec565b6044356001600160a01b03811692919083900361019b57610a656112e9565b610a6f818361116c565b90929091906001600160a01b03168403610b305750505b6040516370a0823160e01b815230600482015290602082602481865afa918215610b2457600092610aed575b5080821115610adc5781039081116103ba57600054610019926001600160a01b03909116906112ae565b635173843d60e01b60005260046000fd5b90916020823d602011610b1c575b81610b0860209383611089565b81010312610b195750519083610ab2565b80fd5b3d9150610afb565b6040513d6000823e3d90fd5b9091506001600160a01b03168214600003610a865760405162461bcd60e51b815260206004820152601a60248201527f53696d706c65537761705f5f546f6b656e4e6f74496e506169720000000000006044820152606490fd5b3461019b5760a036600319011261019b5760443560043567ffffffffffffffff821161019b573660238301121561019b5781600401359067ffffffffffffffff821161019b573660248360051b8501011161019b57606435926001600160a01b0384169081850361019b5760843542116104865760028403610cec578315610cd657610c18602482016110ab565b9360011015610cd6576044610c2d91016110ab565b610c41610c3a828661116c565b9085611042565b906024358210610cc5576001600160a01b03851694610c8d918391610c7d90610c6c8830338c6111db565b8783610c77866110bf565b92611242565b6001600160a01b031696876112ae565b604051928352602083015260408201527f1eeaa4acf3c225a4033105c2647625dbb298dec93b14e16253c4231e26c02b1d60603392a4005b63775baed560e11b60005260046000fd5b634e487b7160e01b600052603260045260246000fd5b6363f473bd60e01b60005260046000fd5b3461019b57600036600319011261019b57602060405160128152f35b3461019b57606036600319011261019b57610d32610fd6565b610d3a610fec565b6001600160a01b0382166000818152600260209081526040808320338452909152902054909260443592916000198110610d7a575b5061085a93506110d0565b838110610de9578415610dd3573315610dbd5761085a946000526002602052604060002060018060a01b0333166000526020528360406000209103905584610d6f565b634a1406b160e11b600052600060045260246000fd5b63e602df0560e01b600052600060045260246000fd5b8390637dc7a0d960e11b6000523360045260245260445260646000fd5b3461019b57600036600319011261019b576020600354604051908152f35b3461019b57604036600319011261019b57610e3d610fd6565b602435903315610dd3576001600160a01b0316908115610dbd57336000526002602052604060002082600052602052806040600020556040519081527f8c5be1e5ebec7d5bd14f71427d1e84f3dd0314c0f7b2291e5b200ac8c7c3b92560203392a3602060405160018152f35b3461019b57600036600319011261019b5760405160006004548060011c90600181168015610f5f575b60208310811461094b578285529081156109275750600114610eff5761038f836108bb81850382611089565b91905060046000527f8a35acfbc15ff81a39ae7d344fd709f28e8600b4aa8c65c6b64bfe7fe36bd19b916000905b808210610f45575090915081016020016108bb6108ab565b919260018160209254838588010152019101909291610f2d565b91607f1691610ed3565b3461019b57606036600319011261019b57602061082c604435602435600435611042565b91909160208152825180602083015260005b818110610fc0575060409293506000838284010152601f8019910116010190565b8060208092870101516040828601015201610f9f565b600435906001600160a01b038216820361019b57565b602435906001600160a01b038216820361019b57565b818102929181159184041417156103ba57565b919082018092116103ba57565b811561102c570490565b634e487b7160e01b600052601260045260246000fd5b9182156110785781158015611070575b6103a957826110676104019261106d95611002565b92611015565b90565b508015611052565b63799053e760e11b60005260046000fd5b90601f8019910116810190811067ffffffffffffffff82111761051a57604052565b356001600160a01b038116810361019b5790565b600160ff1b81146103ba5760000390565b6001600160a01b0316908115610771576001600160a01b0316918215610393576000828152600160205260408120548281106111525791604082827fddf252ad1be2c89b69c2b068fc378daa952ba7f163c4a11628f55a4df523b3ef9587602096526001865203828220558681526001845220818154019055604051908152a3565b916064928463391434e360e21b8452600452602452604452fd5b9060409061117a8184611312565b506001600160a01b0390811660008181526006602052849020918516149390919084156111d35750905b60009160018060a01b0316825260205220906000146111c857600181549101549091565b600181015490549091565b9050906111a4565b6040516323b872dd60e01b60208201526001600160a01b0392831660248201529290911660448301526064808301939093529181526112249161121f608483611089565b611344565b565b919091600083820193841291129080158216911516176103ba57565b919061125060409184611312565b6001600160a01b0391821660008181526006602090815285822093851682529290925292902093160361129e5761129a9161128f6001925b8254611226565b815501918254611226565b9055565b9161129a9161128f600192611288565b60405163a9059cbb60e01b60208201526001600160a01b0390921660248301526044808301939093529181526112249161121f606483611089565b6000546001600160a01b031633036112fd57565b63118cdaa760e01b6000523360045260246000fd5b6001600160a01b038281169082168082146113345710156113305791565b9091565b62cd7c0360e51b60005260046000fd5b906000602091828151910182855af115610b24576000513d61139657506001600160a01b0381163b155b6113755750565b635274afe760e01b60009081526001600160a01b0391909116600452602490fd5b6001141561136e565b600181111561106d57806001600160801b8210156114b0575b600482600160401b6114629410156114a3575b640100000000811015611496575b62010000811015611489575b61010081101561147d575b6010811015611471575b1015611469575b60030260011c6114118184611022565b0160011c61141f8184611022565b0160011c61142d8184611022565b0160011c61143b8184611022565b0160011c6114498184611022565b0160011c6114578184611022565b0160011c8092611022565b8111900390565b60011b611401565b811c9160021b916113fa565b60081c91811b916113f0565b60101c9160081b916113e5565b60201c9160101b916113d9565b60401c9160201b916113cb565b5050608081901c600160401b6113b856fea26469706673582212204825e7c396fa6aa6734c2ff286960f05a0f523807ec359886abe257301d86f2264736f6c634300081b0033",
  "linkReferences": {},
  "deployedLinkReferences": {}
}