{
  "_format": "hh-sol-artifact-1",
  "contractName": "MyTokenB",
  "sourceName": "contracts/MyTokenB.sol",
  "abi": [
    {
      "inputs": [
        {
          "internalType": "address",
          "name": "recipient",
          "type": "address"
        },
        {
          "internalType": "address",
          "name": "initialOwner",
          "type": "address"
        }
      ],
      "stateMutability": "nonpayable",
      "type": "constructor"
    },
    {
      "inputs": [
        {
          "internalType": "address",
          "name": "spender",
          "type": "address"
        },
        {
          "internalType": "uint256",
          "name": "allowance",
          "type": "uint256"
        },
        {
          "internalType": "uint256",
          "name": "needed",
          "type": "uint256"
        }
      ],
      "name": "ERC20InsufficientAllowance",
      "type": "error"
    },
    {
      "inputs": [
        {
          "internalType": "address",
          "name": "sender",
          "type": "address"
        },
        {
          "internalType": "uint256",
          "name": "balance",
          "type": "uint256"
        },
        {
          "internalType": "uint256",
          "name": "needed",
          "type": "uint256"
        }
      ],
      "name": "ERC20InsufficientBalance",
      "type": "error"
    },
    {
      "inputs": [
        {
          "internalType": "address",
          "name": "approver",
          "type": "address"
        }
      ],
      "name": "ERC20InvalidApprover",
      "type": "error"
    },
    {
      "inputs": [
        {
          "internalType": "address",
          "name": "receiver",
          "type": "address"
        }
      ],
      "name": "ERC20InvalidReceiver",
      "type": "error"
    },
    {
      "inputs": [
        {
          "internalType": "address",
          "name": "sender",
          "type": "address"
        }
      ],
      "name": "ERC20InvalidSender",
      "type": "error"
    },
    {
      "inputs": [
        {
          "internalType": "address",
          "name": "spender",
          "type": "address"
        }
      ],
      "name": "ERC20InvalidSpender",
      "type": "error"
    },
    {
      "inputs": [
        {
          "internalType": "address",
          "name": "owner",
          "type": "address"
        }
      ],
      "name": "OwnableInvalidOwner",
      "type": "error"
    },
    {
      "inputs": [
        {
          "internalType": "address",
          "name": "account",
          "type": "address"
        }
      ],
      "name": "OwnableUnauthorizedAccount",
      "type": "error"
    },
    {
      "anonymous": false,
      "inputs": [
        {
          "indexed": true,
          "internalType": "address",
          "name": "owner",
          "type": "address"
        },
        {
          "indexed": true,
          "internalType": "address",
          "name": "spender",
          "type": "address"
        },
        {
          "indexed": false,
          "internalType": "uint256",
          "name": "value",
          "type": "uint256"
        }
      ],
      "name": "Approval",
      "type": "event"
    },
    {
      "anonymous": false,
      "inputs": [
        {
          "indexed": true,
          "internalType": "address",
          "name": "previousOwner",
          "type": "address"
        },
        {
          "indexed": true,
          "internalType": "address",
          "name": "newOwner",
          "type": "address"
        }
      ],
      "name": "OwnershipTransferred",
      "type": "event"
    },
    {
      "anonymous": false,
      "inputs": [
        {
          "indexed": true,
          "internalType": "address",
          "name": "from",
          "type": "address"
        },
        {
          "indexed": true,
          "internalType": "address",
          "name": "to",
          "type": "address"
        },
        {
          "indexed": false,
          "internalType": "uint256",
          "name": "value",
          "type": "uint256"
        }
      ],
      "name": "Transfer",
      "type": "event"
    },
    {
      "inputs": [],
      "name": "FAUCET_COOLDOWN",
      "outputs": [
        {
          "internalType": "uint256",
          "name": "",
          "type": "uint256"
        }
      ],
      "stateMutability": "view",
      "type": "function"
    },
    {
      "inputs": [
        {
          "internalType": "address",
          "name": "owner",
          "type": "address"
        },
        {
          "internalType": "address",
          "name": "spender",
          "type": "address"
        }
      ],
      "name": "allowance",
      "outputs": [
        {
          "internalType": "uint256",
          "name": "",
          "type": "uint256"
        }
      ],
      "stateMutability": "view",
      "type": "function"
    },
    {
      "inputs": [
        {
          "internalType": "address",
          "name": "spender",
          "type": "address"
        },
        {
          "internalType": "uint256",
          "name": "value",
          "type": "uint256"
        }
      ],
      "name": "approve",
      "outputs": [
        {
          "internalType": "bool",
          "name": "",
          "type": "bool"
        }
      ],
      "stateMutability": "nonpayable",
      "type": "function"
    },
    {
      "inputs": [
        {
          "internalType": "address",
          "name": "account",
          "type": "address"
        }
      ],
      "name": "balanceOf",
      "outputs": [
        {
          "internalType": "uint256",
          "name": "",
          "type": "uint256"
        }
      ],
      "stateMutability": "view",
      "type": "function"
    },
    {
      "inputs": [],
      "name": "decimals",
      "outputs": [
        {
          "internalType": "uint8",
          "name": "",
          "type": "uint8"
        }
      ],
      "stateMutability": "view",
      "type": "function"
    },
    {
      "inputs": [],
      "name": "faucet",
      "outputs": [],
      "stateMutability": "nonpayable",
      "type": "function"
    },
    {
      "inputs": [],
      "name": "faucetAmount",
      "outputs": [
        {
          "internalType": "uint256",
          "name": "",
          "type": "uint256"
        }
      ],
      "stateMutability": "view",
      "type": "function"
    },
    {
      "inputs": [
        {
          "internalType": "address",
          "name": "",
          "type": "address"
        }
      ],
      "name": "lastClaimTimestamp",
      "outputs": [
        {
          "internalType": "uint256",
          "name": "",
          "type": "uint256"
        }
      ],
      "stateMutability": "view",
      "type": "function"
    },
    {
      "inputs": [
        {
          "internalType": "address",
          "name": "to",
          "type": "address"
        },
        {
          "internalType": "uint256",
          "name": "amount",
          "type": "uint256"
        }
      ],
      "name": "mint",
      "outputs": [],
      "stateMutability": "nonpayable",
      "type": "function"
    },
    {
      "inputs": [],
      "name": "name",
      "outputs": [
        {
          "internalType": "string",
          "name": "",
          "type": "string"
        }
      ],
      "stateMutability": "view",
      "type": "function"
    },
    {
      "inputs": [],
      "name": "owner",
      "outputs": [
        {
          "internalType": "address",
          "name": "",
          "type": "address"
        }
      ],
      "stateMutability": "view",
      "type": "function"
    },
    {
      "inputs": [],
      "name": "renounceOwnership",
      "outputs": [],
      "stateMutability": "nonpayable",
      "type": "function"
    },
    {
      "inputs": [],
      "name": "symbol",
      "outputs": [
        {
          "internalType": "string",
          "name": "",
          "type": "string"
        }
      ],
      "stateMutability": "view",
      "type": "function"
    },
    {
      "inputs": [],
      "name": "totalSupply",
      "outputs": [
        {
          "internalType": "uint256",
          "name": "",
          "type": "uint256"
        }
      ],
      "stateMutability": "view",
      "type": "function"
    },
    {
      "inputs": [
        {
          "internalType": "address",
          "name": "to",
          "type": "address"
        },
        {
          "internalType": "uint256",
          "name": "value",
          "type": "uint256"
        }
      ],
      "name": "transfer",
      "outputs": [
        {
          "internalType": "bool",
          "name": "",
          "type": "bool"
        }
      ],
      "stateMutability": "nonpayable",
      "type": "function"
    },
    {
      "inputs": [
        {
          "internalType": "address",
          "name": "from",
          "type": "address"
        },
        {
          "internalType": "address",
          "name": "to",
          "type": "address"
        },
        {
          "internalType": "uint256",
          "name": "value",
          "type": "uint256"
        }
      ],
      "name": "transferFrom",
      "outputs": [
        {
          "internalType": "bool",
          "name": "",
          "type": "bool"
        }
      ],
      "stateMutability": "nonpayable",
      "type": "function"
    },
    {
      "inputs": [
        {
          "internalType": "address",
          "name": "newOwner",
          "type": "address"
        }
      ],
      "name": "transferOwnership",
      "outputs": [],
      "stateMutability": "nonpayable",
      "type": "function"
    }
  ],
  "bytecode": "0x60806040523461045b57610e3b6040813803918261001c81610460565b93849283398101031261045b5761003e602061003783610485565b9201610485565b6100486040610460565b91600883526726bcaa37b5b2b72160c11b60208401526100686040610460565b600381526226aa2160e91b602082015283519092906001600160401b03811161036457600354600181811c91168015610451575b602082101461034457601f81116103ec575b50602094601f82116001146103855794819293949560009261037a575b50508160011b916000199060031b1c1916176003555b82516001600160401b03811161036457600454600181811c9116801561035a575b602082101461034457601f81116102df575b506020601f8211600114610278578192939460009261026d575b50508160011b916000199060031b1c1916176004555b6001600160a01b0316801561025757600580546001600160a01b0319811683179091556001600160a01b03167f8be0079c531659141344cd1fd0a4f28419497f9722a3daafe3b4186f6b6457e0600080a368056bc75e2d631000006006556001600160a01b031680156102415760025469d3c21bcecceda1000000810180911161022b576002556000818152806020526040812069d3c21bcecceda100000081540190557fddf252ad1be2c89b69c2b068fc378daa952ba7f163c4a11628f55a4df523b3ef602060405169d3c21bcecceda10000008152a36040516109a1908161049a8239f35b634e487b7160e01b600052601160045260246000fd5b63ec442f0560e01b600052600060045260246000fd5b631e4fbdf760e01b600052600060045260246000fd5b01519050388061012e565b601f198216906004600052806000209160005b8181106102c7575095836001959697106102ae575b505050811b01600455610144565b015160001960f88460031b161c191690553880806102a0565b9192602060018192868b01518155019401920161028b565b60046000527f8a35acfbc15ff81a39ae7d344fd709f28e8600b4aa8c65c6b64bfe7fe36bd19b601f830160051c8101916020841061033a575b601f0160051c01905b81811061032e5750610114565b60008155600101610321565b9091508190610318565b634e487b7160e01b600052602260045260246000fd5b90607f1690610102565b634e487b7160e01b600052604160045260246000fd5b0151905038806100cb565b601f198216956003600052806000209160005b8881106103d4575083600195969798106103bb575b505050811b016003556100e1565b015160001960f88460031b161c191690553880806103ad565b91926020600181928685015181550194019201610398565b60036000527fc2575a0e9e593c00f959f8c92f12db2869c3395a3b0502d05e2516446f71f85b601f830160051c81019160208410610447575b601f0160051c01905b81811061043b57506100ae565b6000815560010161042e565b9091508190610425565b90607f169061009c565b600080fd5b6040519190601f01601f191682016001600160401b0381118382101761036457604052565b51906001600160a01b038216820361045b5756fe608080604052600436101561001357600080fd5b60003560e01c90816306fdde03146106d657508063095ea7b31461065057806318160ddd1461063257806323b872dd14610545578063313ce5671461052957806340c10f19146104fc57806370a08231146104c2578063715018a6146104655780637d1d5d19146104485780638da5cb5b1461041f57806395d89b41146102fe5780639c281430146102e0578063a9059cbb146102af578063bd9d518b14610275578063dd62ed3e14610224578063de5f72fd146101695763f2fde38b146100da57600080fd5b34610164576020366003190112610164576100f36107f2565b6100fb6108e3565b6001600160a01b0316801561014e57600580546001600160a01b0319811683179091556001600160a01b03167f8be0079c531659141344cd1fd0a4f28419497f9722a3daafe3b4186f6b6457e0600080a3005b631e4fbdf760e01b600052600060045260246000fd5b600080fd5b346101645760003660031901126101645733600052600760205260406000205461012c810180911161020e5742106101b957336000526007602052426040600020556101b76006543361090c565b005b60405162461bcd60e51b815260206004820152602760248201527f46617563657420636f6f6c646f776e3a20506c6561736520776169742035206d60448201526634b73aba32b99760c91b6064820152608490fd5b634e487b7160e01b600052601160045260246000fd5b346101645760403660031901126101645761023d6107f2565b610245610808565b6001600160a01b039182166000908152600160209081526040808320949093168252928352819020549051908152f35b34610164576020366003190112610164576001600160a01b036102966107f2565b1660005260076020526020604060002054604051908152f35b34610164576040366003190112610164576102d56102cb6107f2565b602435903361081e565b602060405160018152f35b34610164576000366003190112610164576020600654604051908152f35b346101645760003660031901126101645760405160006004548060011c90600181168015610415575b602083108114610401578285529081156103e5575060011461038e575b50819003601f01601f191681019067ffffffffffffffff82118183101761037857610374829182604052826107a9565b0390f35b634e487b7160e01b600052604160045260246000fd5b905060046000527f8a35acfbc15ff81a39ae7d344fd709f28e8600b4aa8c65c6b64bfe7fe36bd19b6000905b8282106103cf57506020915082010182610344565b60018160209254838588010152019101906103ba565b90506020925060ff191682840152151560051b82010182610344565b634e487b7160e01b84526022600452602484fd5b91607f1691610327565b34610164576000366003190112610164576005546040516001600160a01b039091168152602090f35b3461016457600036600319011261016457602060405161012c8152f35b346101645760003660031901126101645761047e6108e3565b600580546001600160a01b031981169091556000906001600160a01b03167f8be0079c531659141344cd1fd0a4f28419497f9722a3daafe3b4186f6b6457e08280a3005b34610164576020366003190112610164576001600160a01b036104e36107f2565b1660005260006020526020604060002054604051908152f35b34610164576040366003190112610164576101b76105186107f2565b6105206108e3565b6024359061090c565b3461016457600036600319011261016457602060405160128152f35b346101645760603660031901126101645761055e6107f2565b610566610808565b6001600160a01b03821660008181526001602090815260408083203384529091529020549092604435929160001981106105a6575b506102d5935061081e565b8381106106155784156105ff5733156105e9576102d5946000526001602052604060002060018060a01b033316600052602052836040600020910390558461059b565b634a1406b160e11b600052600060045260246000fd5b63e602df0560e01b600052600060045260246000fd5b8390637dc7a0d960e11b6000523360045260245260445260646000fd5b34610164576000366003190112610164576020600254604051908152f35b34610164576040366003190112610164576106696107f2565b6024359033156105ff576001600160a01b03169081156105e957336000526001602052604060002082600052602052806040600020556040519081527f8c5be1e5ebec7d5bd14f71427d1e84f3dd0314c0f7b2291e5b200ac8c7c3b92560203392a3602060405160018152f35b346101645760003660031901126101645760006003548060011c9060018116801561079f575b602083108114610401578285529081156103e557506001146107485750819003601f01601f191681019067ffffffffffffffff82118183101761037857610374829182604052826107a9565b905060036000527fc2575a0e9e593c00f959f8c92f12db2869c3395a3b0502d05e2516446f71f85b6000905b82821061078957506020915082010182610344565b6001816020925483858801015201910190610774565b91607f16916106fc565b91909160208152825180602083015260005b8181106107dc575060409293506000838284010152601f8019910116010190565b80602080928701015160408286010152016107bb565b600435906001600160a01b038216820361016457565b602435906001600160a01b038216820361016457565b6001600160a01b03169081156108cd576001600160a01b03169182156108b757600082815280602052604081205482811061089d5791604082827fddf252ad1be2c89b69c2b068fc378daa952ba7f163c4a11628f55a4df523b3ef958760209652828652038282205586815280845220818154019055604051908152a3565b916064928463391434e360e21b8452600452602452604452fd5b63ec442f0560e01b600052600060045260246000fd5b634b637e8f60e11b600052600060045260246000fd5b6005546001600160a01b031633036108f757565b63118cdaa760e01b6000523360045260246000fd5b6001600160a01b03169081156108b75760025481810180911161020e576002557fddf252ad1be2c89b69c2b068fc378daa952ba7f163c4a11628f55a4df523b3ef602060009284845283825260408420818154019055604051908152a356fea2646970667358221220b294415df569974ff3f5df6a3d1dc1ef8d38ae788fe3e6a942601b9f3e300c4564736f6c634300081b0033",
  "linkReferences": {},
  "deployedLinkReferences": {}
}