{
  "_format": "hh-sol-artifact-1",
  "contractName": "SimpleSwap",
  "sourceName": "contracts/SimpleSwap.sol",
  "abi": [
    {
      "inputs": [
        {
          "internalType": "address",
          "name": "initialOwner",
          "type": "address"
        }
      ],
      "stateMutability": "nonpayable",
      "type": "constructor"
    },
    {
      "inputs": [
        {
          "internalType": "address",
          "name": "spender",
          "type": "address"
        },
        {
          "internalType": "uint256",
          "name": "allowance",
          "type": "uint256"
        },
        {
          "internalType": "uint256",
          "name": "needed",
          "type": "uint256"
        }
      ],
      "name": "ERC20InsufficientAllowance",
      "type": "error"
    },
    {
      "inputs": [
        {
          "internalType": "address",
          "name": "sender",
          "type": "address"
        },
        {
          "internalType": "uint256",
          "name": "balance",
          "type": "uint256"
        },
        {
          "internalType": "uint256",
          "name": "needed",
          "type": "uint256"
        }
      ],
      "name": "ERC20InsufficientBalance",
      "type": "error"
    },
    {
      "inputs": [
        {
          "internalType": "address",
          "name": "approver",
          "type": "address"
        }
      ],
      "name": "ERC20InvalidApprover",
      "type": "error"
    },
    {
      "inputs": [
        {
          "internalType": "address",
          "name": "receiver",
          "type": "address"
        }
      ],
      "name": "ERC20InvalidReceiver",
      "type": "error"
    },
    {
      "inputs": [
        {
          "internalType": "address",
          "name": "sender",
          "type": "address"
        }
      ],
      "name": "ERC20InvalidSender",
      "type": "error"
    },
    {
      "inputs": [
        {
          "internalType": "address",
          "name": "spender",
          "type": "address"
        }
      ],
      "name": "ERC20InvalidSpender",
      "type": "error"
    },
    {
      "inputs": [
        {
          "internalType": "address",
          "name": "owner",
          "type": "address"
        }
      ],
      "name": "OwnableInvalidOwner",
      "type": "error"
    },
    {
      "inputs": [
        {
          "internalType": "address",
          "name": "account",
          "type": "address"
        }
      ],
      "name": "OwnableUnauthorizedAccount",
      "type": "error"
    },
    {
      "inputs": [
        {
          "internalType": "address",
          "name": "token",
          "type": "address"
        }
      ],
      "name": "SafeERC20FailedOperation",
      "type": "error"
    },
    {
      "inputs": [],
      "name": "SimpleSwap__EthTransferFailed",
      "type": "error"
    },
    {
      "inputs": [],
      "name": "SimpleSwap__Expired",
      "type": "error"
    },
    {
      "inputs": [],
      "name": "SimpleSwap__IdenticalTokens",
      "type": "error"
    },
    {
      "inputs": [],
      "name": "SimpleSwap__InsufficientAllowance",
      "type": "error"
    },
    {
      "inputs": [],
      "name": "SimpleSwap__InsufficientAmountA",
      "type": "error"
    },
    {
      "inputs": [],
      "name": "SimpleSwap__InsufficientAmountB",
      "type": "error"
    },
    {
      "inputs": [],
      "name": "SimpleSwap__InsufficientBalance",
      "type": "error"
    },
    {
      "inputs": [],
      "name": "SimpleSwap__InsufficientLiquidity",
      "type": "error"
    },
    {
      "inputs": [],
      "name": "SimpleSwap__InsufficientOutputAmount",
      "type": "error"
    },
    {
      "inputs": [],
      "name": "SimpleSwap__InvalidLiquidity",
      "type": "error"
    },
    {
      "inputs": [],
      "name": "SimpleSwap__InvalidPath",
      "type": "error"
    },
    {
      "inputs": [],
      "name": "SimpleSwap__NoEthToWithdraw",
      "type": "error"
    },
    {
      "inputs": [],
      "name": "SimpleSwap__NoTokensToRecover",
      "type": "error"
    },
    {
      "inputs": [],
      "name": "SimpleSwap__ZeroInitialLiquidity",
      "type": "error"
    },
    {
      "inputs": [],
      "name": "SimpleSwap__ZeroInputAmount",
      "type": "error"
    },
    {
      "anonymous": false,
      "inputs": [
        {
          "indexed": true,
          "internalType": "address",
          "name": "owner",
          "type": "address"
        },
        {
          "indexed": true,
          "internalType": "address",
          "name": "spender",
          "type": "address"
        },
        {
          "indexed": false,
          "internalType": "uint256",
          "name": "value",
          "type": "uint256"
        }
      ],
      "name": "Approval",
      "type": "event"
    },
    {
      "anonymous": false,
      "inputs": [
        {
          "indexed": true,
          "internalType": "address",
          "name": "sender",
          "type": "address"
        },
        {
          "indexed": true,
          "internalType": "address",
          "name": "tokenA",
          "type": "address"
        },
        {
          "indexed": true,
          "internalType": "address",
          "name": "tokenB",
          "type": "address"
        },
        {
          "indexed": false,
          "internalType": "uint256",
          "name": "amountA",
          "type": "uint256"
        },
        {
          "indexed": false,
          "internalType": "uint256",
          "name": "amountB",
          "type": "uint256"
        },
        {
          "indexed": false,
          "internalType": "uint256",
          "name": "liquidity",
          "type": "uint256"
        }
      ],
      "name": "LiquidityAdded",
      "type": "event"
    },
    {
      "anonymous": false,
      "inputs": [
        {
          "indexed": true,
          "internalType": "address",
          "name": "sender",
          "type": "address"
        },
        {
          "indexed": true,
          "internalType": "address",
          "name": "tokenA",
          "type": "address"
        },
        {
          "indexed": true,
          "internalType": "address",
          "name": "tokenB",
          "type": "address"
        },
        {
          "indexed": false,
          "internalType": "uint256",
          "name": "amountA",
          "type": "uint256"
        },
        {
          "indexed": false,
          "internalType": "uint256",
          "name": "amountB",
          "type": "uint256"
        },
        {
          "indexed": false,
          "internalType": "uint256",
          "name": "liquidity",
          "type": "uint256"
        }
      ],
      "name": "LiquidityRemoved",
      "type": "event"
    },
    {
      "anonymous": false,
      "inputs": [
        {
          "indexed": true,
          "internalType": "address",
          "name": "previousOwner",
          "type": "address"
        },
        {
          "indexed": true,
          "internalType": "address",
          "name": "newOwner",
          "type": "address"
        }
      ],
      "name": "OwnershipTransferred",
      "type": "event"
    },
    {
      "anonymous": false,
      "inputs": [
        {
          "indexed": true,
          "internalType": "address",
          "name": "sender",
          "type": "address"
        },
        {
          "indexed": true,
          "internalType": "address",
          "name": "tokenIn",
          "type": "address"
        },
        {
          "indexed": true,
          "internalType": "address",
          "name": "tokenOut",
          "type": "address"
        },
        {
          "indexed": false,
          "internalType": "uint256",
          "name": "amountIn",
          "type": "uint256"
        },
        {
          "indexed": false,
          "internalType": "uint256",
          "name": "amountOut",
          "type": "uint256"
        },
        {
          "indexed": false,
          "internalType": "address",
          "name": "to",
          "type": "address"
        }
      ],
      "name": "Swapped",
      "type": "event"
    },
    {
      "anonymous": false,
      "inputs": [
        {
          "indexed": true,
          "internalType": "address",
          "name": "from",
          "type": "address"
        },
        {
          "indexed": true,
          "internalType": "address",
          "name": "to",
          "type": "address"
        },
        {
          "indexed": false,
          "internalType": "uint256",
          "name": "value",
          "type": "uint256"
        }
      ],
      "name": "Transfer",
      "type": "event"
    },
    {
      "inputs": [],
      "name": "MINIMUM_LIQUIDITY",
      "outputs": [
        {
          "internalType": "uint256",
          "name": "",
          "type": "uint256"
        }
      ],
      "stateMutability": "view",
      "type": "function"
    },
    {
      "inputs": [
        {
          "internalType": "address",
          "name": "tokenA",
          "type": "address"
        },
        {
          "internalType": "address",
          "name": "tokenB",
          "type": "address"
        },
        {
          "internalType": "uint256",
          "name": "amountADesired",
          "type": "uint256"
        },
        {
          "internalType": "uint256",
          "name": "amountBDesired",
          "type": "uint256"
        },
        {
          "internalType": "uint256",
          "name": "amountAMin",
          "type": "uint256"
        },
        {
          "internalType": "uint256",
          "name": "amountBMin",
          "type": "uint256"
        },
        {
          "internalType": "address",
          "name": "to",
          "type": "address"
        },
        {
          "internalType": "uint256",
          "name": "deadline",
          "type": "uint256"
        }
      ],
      "name": "addLiquidity",
      "outputs": [
        {
          "internalType": "uint256",
          "name": "amountA",
          "type": "uint256"
        },
        {
          "internalType": "uint256",
          "name": "amountB",
          "type": "uint256"
        },
        {
          "internalType": "uint256",
          "name": "liquidity",
          "type": "uint256"
        }
      ],
      "stateMutability": "nonpayable",
      "type": "function"
    },
    {
      "inputs": [
        {
          "internalType": "address",
          "name": "owner",
          "type": "address"
        },
        {
          "internalType": "address",
          "name": "spender",
          "type": "address"
        }
      ],
      "name": "allowance",
      "outputs": [
        {
          "internalType": "uint256",
          "name": "",
          "type": "uint256"
        }
      ],
      "stateMutability": "view",
      "type": "function"
    },
    {
      "inputs": [
        {
          "internalType": "address",
          "name": "spender",
          "type": "address"
        },
        {
          "internalType": "uint256",
          "name": "value",
          "type": "uint256"
        }
      ],
      "name": "approve",
      "outputs": [
        {
          "internalType": "bool",
          "name": "",
          "type": "bool"
        }
      ],
      "stateMutability": "nonpayable",
      "type": "function"
    },
    {
      "inputs": [
        {
          "internalType": "address",
          "name": "account",
          "type": "address"
        }
      ],
      "name": "balanceOf",
      "outputs": [
        {
          "internalType": "uint256",
          "name": "",
          "type": "uint256"
        }
      ],
      "stateMutability": "view",
      "type": "function"
    },
    {
      "inputs": [],
      "name": "decimals",
      "outputs": [
        {
          "internalType": "uint8",
          "name": "",
          "type": "uint8"
        }
      ],
      "stateMutability": "view",
      "type": "function"
    },
    {
      "inputs": [
        {
          "internalType": "uint256",
          "name": "amountIn",
          "type": "uint256"
        },
        {
          "internalType": "uint256",
          "name": "reserveIn",
          "type": "uint256"
        },
        {
          "internalType": "uint256",
          "name": "reserveOut",
          "type": "uint256"
        }
      ],
      "name": "getAmountOut",
      "outputs": [
        {
          "internalType": "uint256",
          "name": "amountOut",
          "type": "uint256"
        }
      ],
      "stateMutability": "pure",
      "type": "function"
    },
    {
      "inputs": [
        {
          "internalType": "address",
          "name": "tokenA",
          "type": "address"
        },
        {
          "internalType": "address",
          "name": "tokenB",
          "type": "address"
        }
      ],
      "name": "getPrice",
      "outputs": [
        {
          "internalType": "uint256",
          "name": "price",
          "type": "uint256"
        }
      ],
      "stateMutability": "view",
      "type": "function"
    },
    {
      "inputs": [
        {
          "internalType": "address",
          "name": "_tokenA",
          "type": "address"
        },
        {
          "internalType": "address",
          "name": "_tokenB",
          "type": "address"
        }
      ],
      "name": "getReserves",
      "outputs": [
        {
          "internalType": "uint256",
          "name": "reserveA",
          "type": "uint256"
        },
        {
          "internalType": "uint256",
          "name": "reserveB",
          "type": "uint256"
        }
      ],
      "stateMutability": "view",
      "type": "function"
    },
    {
      "inputs": [],
      "name": "name",
      "outputs": [
        {
          "internalType": "string",
          "name": "",
          "type": "string"
        }
      ],
      "stateMutability": "view",
      "type": "function"
    },
    {
      "inputs": [],
      "name": "owner",
      "outputs": [
        {
          "internalType": "address",
          "name": "",
          "type": "address"
        }
      ],
      "stateMutability": "view",
      "type": "function"
    },
    {
      "inputs": [
        {
          "internalType": "address",
          "name": "tokenAddress",
          "type": "address"
        }
      ],
      "name": "recoverERC20",
      "outputs": [],
      "stateMutability": "nonpayable",
      "type": "function"
    },
    {
      "inputs": [
        {
          "internalType": "address",
          "name": "tokenA",
          "type": "address"
        },
        {
          "internalType": "address",
          "name": "tokenB",
          "type": "address"
        },
        {
          "internalType": "uint256",
          "name": "liquidity",
          "type": "uint256"
        },
        {
          "internalType": "uint256",
          "name": "amountAMin",
          "type": "uint256"
        },
        {
          "internalType": "uint256",
          "name": "amountBMin",
          "type": "uint256"
        },
        {
          "internalType": "address",
          "name": "to",
          "type": "address"
        },
        {
          "internalType": "uint256",
          "name": "deadline",
          "type": "uint256"
        }
      ],
      "name": "removeLiquidity",
      "outputs": [
        {
          "internalType": "uint256",
          "name": "amountA",
          "type": "uint256"
        },
        {
          "internalType": "uint256",
          "name": "amountB",
          "type": "uint256"
        }
      ],
      "stateMutability": "nonpayable",
      "type": "function"
    },
    {
      "inputs": [],
      "name": "renounceOwnership",
      "outputs": [],
      "stateMutability": "nonpayable",
      "type": "function"
    },
    {
      "inputs": [
        {
          "internalType": "address",
          "name": "",
          "type": "address"
        },
        {
          "internalType": "address",
          "name": "",
          "type": "address"
        }
      ],
      "name": "reserves",
      "outputs": [
        {
          "internalType": "uint256",
          "name": "reserveA",
          "type": "uint256"
        },
        {
          "internalType": "uint256",
          "name": "reserveB",
          "type": "uint256"
        }
      ],
      "stateMutability": "view",
      "type": "function"
    },
    {
      "inputs": [
        {
          "internalType": "uint256",
          "name": "amountIn",
          "type": "uint256"
        },
        {
          "internalType": "uint256",
          "name": "amountOutMin",
          "type": "uint256"
        },
        {
          "internalType": "address[]",
          "name": "path",
          "type": "address[]"
        },
        {
          "internalType": "address",
          "name": "to",
          "type": "address"
        },
        {
          "internalType": "uint256",
          "name": "deadline",
          "type": "uint256"
        }
      ],
      "name": "swapExactTokensForTokens",
      "outputs": [],
      "stateMutability": "nonpayable",
      "type": "function"
    },
    {
      "inputs": [],
      "name": "symbol",
      "outputs": [
        {
          "internalType": "string",
          "name": "",
          "type": "string"
        }
      ],
      "stateMutability": "view",
      "type": "function"
    },
    {
      "inputs": [],
      "name": "totalSupply",
      "outputs": [
        {
          "internalType": "uint256",
          "name": "",
          "type": "uint256"
        }
      ],
      "stateMutability": "view",
      "type": "function"
    },
    {
      "inputs": [
        {
          "internalType": "address",
          "name": "to",
          "type": "address"
        },
        {
          "internalType": "uint256",
          "name": "value",
          "type": "uint256"
        }
      ],
      "name": "transfer",
      "outputs": [
        {
          "internalType": "bool",
          "name": "",
          "type": "bool"
        }
      ],
      "stateMutability": "nonpayable",
      "type": "function"
    },
    {
      "inputs": [
        {
          "internalType": "address",
          "name": "from",
          "type": "address"
        },
        {
          "internalType": "address",
          "name": "to",
          "type": "address"
        },
        {
          "internalType": "uint256",
          "name": "value",
          "type": "uint256"
        }
      ],
      "name": "transferFrom",
      "outputs": [
        {
          "internalType": "bool",
          "name": "",
          "type": "bool"
        }
      ],
      "stateMutability": "nonpayable",
      "type": "function"
    },
    {
      "inputs": [
        {
          "internalType": "address",
          "name": "newOwner",
          "type": "address"
        }
      ],
      "name": "transferOwnership",
      "outputs": [],
      "stateMutability": "nonpayable",
      "type": "function"
    },
    {
      "inputs": [],
      "name": "withdrawETH",
      "outputs": [],
      "stateMutability": "nonpayable",
      "type": "function"
    },
    {
      "stateMutability": "payable",
      "type": "receive"
    }
  ],
  "bytecode": "0x608060405234610381576118126020813803918261001c81610386565b93849283398101031261038157516001600160a01b03811690819003610381576100466040610386565b90601282527129b4b6b83632a9bbb0b81026282a37b5b2b760711b60208301526100706040610386565b90600382526213141560ea1b6020830152801561036b57600080546001600160a01b03198116831782556001600160a01b0316907f8be0079c531659141344cd1fd0a4f28419497f9722a3daafe3b4186f6b6457e09080a381516001600160401b03811161027657600454600181811c91168015610361575b602082101461025657601f81116102fc575b50602092601f8211600114610297579281929360009261028c575b50508160011b916000199060031b1c1916176004555b80516001600160401b03811161027657600554600181811c9116801561026c575b602082101461025657601f811161020d575b50602091601f82116001146101a95791819260009261019e575b50508160011b916000199060031b1c1916176005555b60405161146690816103ac8239f35b015190503880610179565b601f198216926005600052806000209160005b8581106101f5575083600195106101dc575b505050811b0160055561018f565b015160001960f88460031b161c191690553880806101ce565b919260206001819286850151815501940192016101bc565b60056000526020600020601f830160051c8101916020841061024c575b601f0160051c01905b818110610240575061015f565b60008155600101610233565b909150819061022a565b634e487b7160e01b600052602260045260246000fd5b90607f169061014d565b634e487b7160e01b600052604160045260246000fd5b015190503880610116565b601f198216936004600052806000209160005b8681106102e457508360019596106102cb575b505050811b0160045561012c565b015160001960f88460031b161c191690553880806102bd565b919260206001819286850151815501940192016102aa565b60046000527f8a35acfbc15ff81a39ae7d344fd709f28e8600b4aa8c65c6b64bfe7fe36bd19b601f830160051c81019160208410610357575b601f0160051c01905b81811061034b57506100fb565b6000815560010161033e565b9091508190610335565b90607f16906100e9565b631e4fbdf760e01b600052600060045260246000fd5b600080fd5b6040519190601f01601f191682016001600160401b038111838210176102765760405256fe6080604052600436101561001b575b361561001957600080fd5b005b60003560e01c8063054d50d414610ed257806306fdde0314610e13578063095ea7b314610d8d57806318160ddd14610d6f57806323b872dd14610c82578063313ce56714610c6657806338ed173914610af357806370a0823114610ab9578063715018a614610a605780638da5cb5b14610a3757806395d89b41146109335780639e8c708e1461086c578063a9059cbb1461083b578063ac41865a146107e4578063ba9a7a56146107c7578063baa2abde146105d6578063d52bb6f41461059e578063dd62ed3e1461054d578063e086e5ec1461049e578063e8e33700146101ff578063ea4afc54146101a05763f2fde38b0361000e573461019b57602036600319011261019b5761012b610f3f565b610133611258565b6001600160a01b0316801561018557600080546001600160a01b03198116831782556001600160a01b0316907f8be0079c531659141344cd1fd0a4f28419497f9722a3daafe3b4186f6b6457e09080a3005b631e4fbdf760e01b600052600060045260246000fd5b600080fd5b3461019b57604036600319011261019b576101b9610f3f565b6101c1610f55565b9060018060a01b0316600052600660205260406000209060018060a01b03166000526020526040806000206001815491015482519182526020820152f35b3461019b5761010036600319011261019b57610219610f3f565b610221610f55565b604435916064359160c4356001600160a01b03811692919083900361019b5760e435421161048d5761025381836110db565b91600354956000831580610485575b15610419575096955b6001600160a01b038516926102828830338761114a565b6001600160a01b038316946102998a30338961114a565b826103e2575050506102b36102ae8888610f6b565b61130e565b6103e88111156103d1576103e71981019081116103bb57935b84156103aa5785156103945786610337928992610390986102ef89600354610f7e565b600355806000526001602052604060002089815401905560007fddf252ad1be2c89b69c2b068fc378daa952ba7f163c4a11628f55a4df523b3ef60206040518c8152a36111b1565b604080518681526020810188905290810184905233907f43c967b388d3a4ccad3f7ab80167852e322e5a3fde9893f530252281b2ae8b7090606090a4604051938493846040919493926060820195825260208201520152565b0390f35b63ec442f0560e01b600052600060045260246000fd5b632f6985ef60e21b60005260046000fd5b634e487b7160e01b600052601160045260246000fd5b636bf6e15960e11b60005260046000fd5b6103f66103fb610402936103f6868d610f6b565b610f8b565b938b610f6b565b8082101561041257505b936102cc565b905061040c565b610427846103f6878c610f6b565b9180831161045257505060a435811061044157969561026b565b631f4adc8160e11b60005260046000fd5b91509750610464846103f68584610f6b565b9760843589106104765750969561026b565b63322f3f8f60e11b8152600490fd5b508415610262565b63bb1a9a5f60e01b60005260046000fd5b3461019b57600036600319011261019b576104b7611258565b47801561053c5760008080809360018060a01b038254165af13d15610537573d67ffffffffffffffff811161052157604051906104fe601f8201601f191660200183610ff8565b8152600060203d92013e5b1561051057005b6309253de360e01b60005260046000fd5b634e487b7160e01b600052604160045260246000fd5b610509565b63566143ef60e11b60005260046000fd5b3461019b57604036600319011261019b57610566610f3f565b61056e610f55565b6001600160a01b039182166000908152600260209081526040808320949093168252928352819020549051908152f35b3461019b57604036600319011261019b5760406105ca6105bc610f3f565b6105c4610f55565b906110db565b82519182526020820152f35b3461019b5760e036600319011261019b576105ef610f3f565b6105f7610f55565b60443560a4356001600160a01b038116810361019b5760c435421161048d57811580156107b0575b61079f578261064f6103f66103f661063a61064897896110db565b979060035493849189610f6b565b9686610f6b565b92606435851061078e57608435841061044157331561077857600095338752600160205260408720549682881061075d5761070c9186918460409a3383526001602052038a822055846003540360035589518581527fddf252ad1be2c89b69c2b068fc378daa952ba7f163c4a11628f55a4df523b3ef60203392a36106e76106d68961102e565b6106df8461102e565b9087846111b1565b6001600160a01b0316936106fc88878761121d565b6001600160a01b0316948561121d565b7fd765e08eef31c0983ecca03ecd166297ac485ecd5dd69e291c848f0a020333c186518061074e3394888a846040919493926060820195825260208201520152565b0390a482519182526020820152f35b606490838963391434e360e21b835233600452602452604452fd5b634b637e8f60e11b600052600060045260246000fd5b63322f3f8f60e11b60005260046000fd5b637b26089360e01b60005260046000fd5b50336000526001602052604060002054821161061f565b3461019b57600036600319011261019b5760206040516103e88152f35b3461019b57604036600319011261019b576108006105bc610f3f565b81156103aa57670de0b6b3a7640000810290808204670de0b6b3a764000014901517156103bb5760209161083391610f8b565b604051908152f35b3461019b57604036600319011261019b57610861610857610f3f565b602435903361103f565b602060405160018152f35b3461019b57602036600319011261019b57610885610f3f565b61088d611258565b6040516370a0823160e01b81523060048201526001600160a01b039190911690602081602481855afa908115610927576000916108f5575b5080156108e457600054610019926001600160a01b039091169061121d565b635173843d60e01b60005260046000fd5b90506020813d60201161091f575b8161091060209383610ff8565b8101031261019b5751826108c5565b3d9150610903565b6040513d6000823e3d90fd5b3461019b57600036600319011261019b5760405160006005548060011c90600181168015610a2d575b602083108114610a19578285529081156109f55750600114610995575b6103908361098981850382610ff8565b60405191829182610ef6565b91905060056000527f036b6384b5eca791c62761152d0c79bb0604c104a5fb6f4eb0703f3154bb3db0916000905b8082106109db57509091508101602001610989610979565b9192600181602092548385880101520191019092916109c3565b60ff191660208086019190915291151560051b840190910191506109899050610979565b634e487b7160e01b84526022600452602484fd5b91607f169161095c565b3461019b57600036600319011261019b576000546040516001600160a01b039091168152602090f35b3461019b57600036600319011261019b57610a79611258565b600080546001600160a01b0319811682556001600160a01b03167f8be0079c531659141344cd1fd0a4f28419497f9722a3daafe3b4186f6b6457e08280a3005b3461019b57602036600319011261019b576001600160a01b03610ada610f3f565b1660005260016020526020604060002054604051908152f35b3461019b5760a036600319011261019b5760443560043567ffffffffffffffff821161019b573660238301121561019b5781600401359067ffffffffffffffff821161019b573660248360051b8501011161019b57606435926001600160a01b0384169081850361019b57608435421161048d5760028403610c55578315610c3f57610b816024820161101a565b9360011015610c3f576044610b96910161101a565b610baa610ba382866110db565b9085610fab565b906024358210610c2e576001600160a01b03851694610bf6918391610be690610bd58830338c61114a565b8783610be08661102e565b926111b1565b6001600160a01b0316968761121d565b604051928352602083015260408201527f1eeaa4acf3c225a4033105c2647625dbb298dec93b14e16253c4231e26c02b1d60603392a4005b63775baed560e11b60005260046000fd5b634e487b7160e01b600052603260045260246000fd5b6363f473bd60e01b60005260046000fd5b3461019b57600036600319011261019b57602060405160128152f35b3461019b57606036600319011261019b57610c9b610f3f565b610ca3610f55565b6001600160a01b0382166000818152600260209081526040808320338452909152902054909260443592916000198110610ce3575b50610861935061103f565b838110610d52578415610d3c573315610d2657610861946000526002602052604060002060018060a01b0333166000526020528360406000209103905584610cd8565b634a1406b160e11b600052600060045260246000fd5b63e602df0560e01b600052600060045260246000fd5b8390637dc7a0d960e11b6000523360045260245260445260646000fd5b3461019b57600036600319011261019b576020600354604051908152f35b3461019b57604036600319011261019b57610da6610f3f565b602435903315610d3c576001600160a01b0316908115610d2657336000526002602052604060002082600052602052806040600020556040519081527f8c5be1e5ebec7d5bd14f71427d1e84f3dd0314c0f7b2291e5b200ac8c7c3b92560203392a3602060405160018152f35b3461019b57600036600319011261019b5760405160006004548060011c90600181168015610ec8575b602083108114610a19578285529081156109f55750600114610e68576103908361098981850382610ff8565b91905060046000527f8a35acfbc15ff81a39ae7d344fd709f28e8600b4aa8c65c6b64bfe7fe36bd19b916000905b808210610eae57509091508101602001610989610979565b919260018160209254838588010152019101909291610e96565b91607f1691610e3c565b3461019b57606036600319011261019b576020610833604435602435600435610fab565b91909160208152825180602083015260005b818110610f29575060409293506000838284010152601f8019910116010190565b8060208092870101516040828601015201610f08565b600435906001600160a01b038216820361019b57565b602435906001600160a01b038216820361019b57565b818102929181159184041417156103bb57565b919082018092116103bb57565b8115610f95570490565b634e487b7160e01b600052601260045260246000fd5b918215610fe75781158015610fdf575b6103aa5782610fd0610fd692610fdc95610f6b565b92610f7e565b90610f8b565b90565b508015610fbb565b63799053e760e11b60005260046000fd5b90601f8019910116810190811067ffffffffffffffff82111761052157604052565b356001600160a01b038116810361019b5790565b600160ff1b81146103bb5760000390565b6001600160a01b0316908115610778576001600160a01b0316918215610394576000828152600160205260408120548281106110c15791604082827fddf252ad1be2c89b69c2b068fc378daa952ba7f163c4a11628f55a4df523b3ef9587602096526001865203828220558681526001845220818154019055604051908152a3565b916064928463391434e360e21b8452600452602452604452fd5b906040906110e98184611281565b506001600160a01b0390811660008181526006602052849020918516149390919084156111425750905b60009160018060a01b03168252602052209060001461113757600181549101549091565b600181015490549091565b905090611113565b6040516323b872dd60e01b60208201526001600160a01b0392831660248201529290911660448301526064808301939093529181526111939161118e608483610ff8565b6112b3565b565b919091600083820193841291129080158216911516176103bb57565b91906111bf60409184611281565b6001600160a01b0391821660008181526006602090815285822093851682529290925292902093160361120d57611209916111fe6001925b8254611195565b815501918254611195565b9055565b91611209916111fe6001926111f7565b60405163a9059cbb60e01b60208201526001600160a01b0390921660248301526044808301939093529181526111939161118e606483610ff8565b6000546001600160a01b0316330361126c57565b63118cdaa760e01b6000523360045260246000fd5b6001600160a01b038281169082168082146112a357101561129f5791565b9091565b62cd7c0360e51b60005260046000fd5b906000602091828151910182855af115610927576000513d61130557506001600160a01b0381163b155b6112e45750565b635274afe760e01b60009081526001600160a01b0391909116600452602490fd5b600114156112dd565b6001811115610fdc57806001600160801b82101561141f575b600482600160401b6113d1941015611412575b640100000000811015611405575b620100008110156113f8575b6101008110156113ec575b60108110156113e0575b10156113d8575b60030260011c6113808184610f8b565b0160011c61138e8184610f8b565b0160011c61139c8184610f8b565b0160011c6113aa8184610f8b565b0160011c6113b88184610f8b565b0160011c6113c68184610f8b565b0160011c8092610f8b565b8111900390565b60011b611370565b811c9160021b91611369565b60081c91811b9161135f565b60101c9160081b91611354565b60201c9160101b91611348565b60401c9160201b9161133a565b5050608081901c600160401b61132756fea264697066735822122042e1a7551a3065c13eac742b06ebfe78b23a43828aaac31dd46a0bbc2937966264736f6c634300081b0033",
  "linkReferences": {},
  "deployedLinkReferences": {}
}