{
  "_format": "hh-sol-artifact-1",
  "contractName": "SimpleSwap",
  "sourceName": "contracts/SimpleSwap.sol",
  "abi": [
    {
      "inputs": [
        {
          "internalType": "address",
          "name": "initialOwner",
          "type": "address"
        }
      ],
      "stateMutability": "nonpayable",
      "type": "constructor"
    },
    {
      "inputs": [
        {
          "internalType": "address",
          "name": "spender",
          "type": "address"
        },
        {
          "internalType": "uint256",
          "name": "allowance",
          "type": "uint256"
        },
        {
          "internalType": "uint256",
          "name": "needed",
          "type": "uint256"
        }
      ],
      "name": "ERC20InsufficientAllowance",
      "type": "error"
    },
    {
      "inputs": [
        {
          "internalType": "address",
          "name": "sender",
          "type": "address"
        },
        {
          "internalType": "uint256",
          "name": "balance",
          "type": "uint256"
        },
        {
          "internalType": "uint256",
          "name": "needed",
          "type": "uint256"
        }
      ],
      "name": "ERC20InsufficientBalance",
      "type": "error"
    },
    {
      "inputs": [
        {
          "internalType": "address",
          "name": "approver",
          "type": "address"
        }
      ],
      "name": "ERC20InvalidApprover",
      "type": "error"
    },
    {
      "inputs": [
        {
          "internalType": "address",
          "name": "receiver",
          "type": "address"
        }
      ],
      "name": "ERC20InvalidReceiver",
      "type": "error"
    },
    {
      "inputs": [
        {
          "internalType": "address",
          "name": "sender",
          "type": "address"
        }
      ],
      "name": "ERC20InvalidSender",
      "type": "error"
    },
    {
      "inputs": [
        {
          "internalType": "address",
          "name": "spender",
          "type": "address"
        }
      ],
      "name": "ERC20InvalidSpender",
      "type": "error"
    },
    {
      "inputs": [
        {
          "internalType": "address",
          "name": "owner",
          "type": "address"
        }
      ],
      "name": "OwnableInvalidOwner",
      "type": "error"
    },
    {
      "inputs": [
        {
          "internalType": "address",
          "name": "account",
          "type": "address"
        }
      ],
      "name": "OwnableUnauthorizedAccount",
      "type": "error"
    },
    {
      "inputs": [
        {
          "internalType": "address",
          "name": "token",
          "type": "address"
        }
      ],
      "name": "SafeERC20FailedOperation",
      "type": "error"
    },
    {
      "inputs": [],
      "name": "SimpleSwap__EthTransferFailed",
      "type": "error"
    },
    {
      "inputs": [],
      "name": "SimpleSwap__Expired",
      "type": "error"
    },
    {
      "inputs": [],
      "name": "SimpleSwap__IdenticalTokens",
      "type": "error"
    },
    {
      "inputs": [],
      "name": "SimpleSwap__InsufficientAllowance",
      "type": "error"
    },
    {
      "inputs": [],
      "name": "SimpleSwap__InsufficientAmountA",
      "type": "error"
    },
    {
      "inputs": [],
      "name": "SimpleSwap__InsufficientAmountB",
      "type": "error"
    },
    {
      "inputs": [],
      "name": "SimpleSwap__InsufficientBalance",
      "type": "error"
    },
    {
      "inputs": [],
      "name": "SimpleSwap__InsufficientLiquidity",
      "type": "error"
    },
    {
      "inputs": [],
      "name": "SimpleSwap__InsufficientOutputAmount",
      "type": "error"
    },
    {
      "inputs": [],
      "name": "SimpleSwap__InvalidLiquidity",
      "type": "error"
    },
    {
      "inputs": [],
      "name": "SimpleSwap__InvalidPath",
      "type": "error"
    },
    {
      "inputs": [],
      "name": "SimpleSwap__NoEthToWithdraw",
      "type": "error"
    },
    {
      "inputs": [],
      "name": "SimpleSwap__NoTokensToRecover",
      "type": "error"
    },
    {
      "inputs": [],
      "name": "SimpleSwap__TokenNotInPair",
      "type": "error"
    },
    {
      "inputs": [],
      "name": "SimpleSwap__ZeroInitialLiquidity",
      "type": "error"
    },
    {
      "inputs": [],
      "name": "SimpleSwap__ZeroInputAmount",
      "type": "error"
    },
    {
      "anonymous": false,
      "inputs": [
        {
          "indexed": true,
          "internalType": "address",
          "name": "owner",
          "type": "address"
        },
        {
          "indexed": true,
          "internalType": "address",
          "name": "spender",
          "type": "address"
        },
        {
          "indexed": false,
          "internalType": "uint256",
          "name": "value",
          "type": "uint256"
        }
      ],
      "name": "Approval",
      "type": "event"
    },
    {
      "anonymous": false,
      "inputs": [
        {
          "indexed": true,
          "internalType": "address",
          "name": "sender",
          "type": "address"
        },
        {
          "indexed": true,
          "internalType": "address",
          "name": "tokenA",
          "type": "address"
        },
        {
          "indexed": true,
          "internalType": "address",
          "name": "tokenB",
          "type": "address"
        },
        {
          "indexed": false,
          "internalType": "uint256",
          "name": "amountA",
          "type": "uint256"
        },
        {
          "indexed": false,
          "internalType": "uint256",
          "name": "amountB",
          "type": "uint256"
        },
        {
          "indexed": false,
          "internalType": "uint256",
          "name": "liquidity",
          "type": "uint256"
        }
      ],
      "name": "LiquidityAdded",
      "type": "event"
    },
    {
      "anonymous": false,
      "inputs": [
        {
          "indexed": true,
          "internalType": "address",
          "name": "sender",
          "type": "address"
        },
        {
          "indexed": true,
          "internalType": "address",
          "name": "tokenA",
          "type": "address"
        },
        {
          "indexed": true,
          "internalType": "address",
          "name": "tokenB",
          "type": "address"
        },
        {
          "indexed": false,
          "internalType": "uint256",
          "name": "amountA",
          "type": "uint256"
        },
        {
          "indexed": false,
          "internalType": "uint256",
          "name": "amountB",
          "type": "uint256"
        },
        {
          "indexed": false,
          "internalType": "uint256",
          "name": "liquidity",
          "type": "uint256"
        }
      ],
      "name": "LiquidityRemoved",
      "type": "event"
    },
    {
      "anonymous": false,
      "inputs": [
        {
          "indexed": true,
          "internalType": "address",
          "name": "previousOwner",
          "type": "address"
        },
        {
          "indexed": true,
          "internalType": "address",
          "name": "newOwner",
          "type": "address"
        }
      ],
      "name": "OwnershipTransferred",
      "type": "event"
    },
    {
      "anonymous": false,
      "inputs": [
        {
          "indexed": true,
          "internalType": "address",
          "name": "sender",
          "type": "address"
        },
        {
          "indexed": true,
          "internalType": "address",
          "name": "tokenIn",
          "type": "address"
        },
        {
          "indexed": true,
          "internalType": "address",
          "name": "tokenOut",
          "type": "address"
        },
        {
          "indexed": false,
          "internalType": "uint256",
          "name": "amountIn",
          "type": "uint256"
        },
        {
          "indexed": false,
          "internalType": "uint256",
          "name": "amountOut",
          "type": "uint256"
        },
        {
          "indexed": false,
          "internalType": "address",
          "name": "to",
          "type": "address"
        }
      ],
      "name": "Swapped",
      "type": "event"
    },
    {
      "anonymous": false,
      "inputs": [
        {
          "indexed": true,
          "internalType": "address",
          "name": "from",
          "type": "address"
        },
        {
          "indexed": true,
          "internalType": "address",
          "name": "to",
          "type": "address"
        },
        {
          "indexed": false,
          "internalType": "uint256",
          "name": "value",
          "type": "uint256"
        }
      ],
      "name": "Transfer",
      "type": "event"
    },
    {
      "inputs": [],
      "name": "MINIMUM_LIQUIDITY",
      "outputs": [
        {
          "internalType": "uint256",
          "name": "",
          "type": "uint256"
        }
      ],
      "stateMutability": "view",
      "type": "function"
    },
    {
      "inputs": [
        {
          "internalType": "address",
          "name": "tokenA",
          "type": "address"
        },
        {
          "internalType": "address",
          "name": "tokenB",
          "type": "address"
        },
        {
          "internalType": "uint256",
          "name": "amountADesired",
          "type": "uint256"
        },
        {
          "internalType": "uint256",
          "name": "amountBDesired",
          "type": "uint256"
        },
        {
          "internalType": "uint256",
          "name": "amountAMin",
          "type": "uint256"
        },
        {
          "internalType": "uint256",
          "name": "amountBMin",
          "type": "uint256"
        },
        {
          "internalType": "address",
          "name": "to",
          "type": "address"
        },
        {
          "internalType": "uint256",
          "name": "deadline",
          "type": "uint256"
        }
      ],
      "name": "addLiquidity",
      "outputs": [
        {
          "internalType": "uint256",
          "name": "amountA",
          "type": "uint256"
        },
        {
          "internalType": "uint256",
          "name": "amountB",
          "type": "uint256"
        },
        {
          "internalType": "uint256",
          "name": "liquidity",
          "type": "uint256"
        }
      ],
      "stateMutability": "nonpayable",
      "type": "function"
    },
    {
      "inputs": [
        {
          "internalType": "address",
          "name": "owner",
          "type": "address"
        },
        {
          "internalType": "address",
          "name": "spender",
          "type": "address"
        }
      ],
      "name": "allowance",
      "outputs": [
        {
          "internalType": "uint256",
          "name": "",
          "type": "uint256"
        }
      ],
      "stateMutability": "view",
      "type": "function"
    },
    {
      "inputs": [
        {
          "internalType": "address",
          "name": "spender",
          "type": "address"
        },
        {
          "internalType": "uint256",
          "name": "value",
          "type": "uint256"
        }
      ],
      "name": "approve",
      "outputs": [
        {
          "internalType": "bool",
          "name": "",
          "type": "bool"
        }
      ],
      "stateMutability": "nonpayable",
      "type": "function"
    },
    {
      "inputs": [
        {
          "internalType": "address",
          "name": "account",
          "type": "address"
        }
      ],
      "name": "balanceOf",
      "outputs": [
        {
          "internalType": "uint256",
          "name": "",
          "type": "uint256"
        }
      ],
      "stateMutability": "view",
      "type": "function"
    },
    {
      "inputs": [],
      "name": "decimals",
      "outputs": [
        {
          "internalType": "uint8",
          "name": "",
          "type": "uint8"
        }
      ],
      "stateMutability": "view",
      "type": "function"
    },
    {
      "inputs": [
        {
          "internalType": "uint256",
          "name": "amountIn",
          "type": "uint256"
        },
        {
          "internalType": "uint256",
          "name": "reserveIn",
          "type": "uint256"
        },
        {
          "internalType": "uint256",
          "name": "reserveOut",
          "type": "uint256"
        }
      ],
      "name": "getAmountOut",
      "outputs": [
        {
          "internalType": "uint256",
          "name": "amountOut",
          "type": "uint256"
        }
      ],
      "stateMutability": "pure",
      "type": "function"
    },
    {
      "inputs": [
        {
          "internalType": "address",
          "name": "tokenA",
          "type": "address"
        },
        {
          "internalType": "address",
          "name": "tokenB",
          "type": "address"
        }
      ],
      "name": "getPrice",
      "outputs": [
        {
          "internalType": "uint256",
          "name": "price",
          "type": "uint256"
        }
      ],
      "stateMutability": "view",
      "type": "function"
    },
    {
      "inputs": [
        {
          "internalType": "address",
          "name": "_tokenA",
          "type": "address"
        },
        {
          "internalType": "address",
          "name": "_tokenB",
          "type": "address"
        }
      ],
      "name": "getReserves",
      "outputs": [
        {
          "internalType": "uint256",
          "name": "reserveA",
          "type": "uint256"
        },
        {
          "internalType": "uint256",
          "name": "reserveB",
          "type": "uint256"
        }
      ],
      "stateMutability": "view",
      "type": "function"
    },
    {
      "inputs": [],
      "name": "name",
      "outputs": [
        {
          "internalType": "string",
          "name": "",
          "type": "string"
        }
      ],
      "stateMutability": "view",
      "type": "function"
    },
    {
      "inputs": [],
      "name": "owner",
      "outputs": [
        {
          "internalType": "address",
          "name": "",
          "type": "address"
        }
      ],
      "stateMutability": "view",
      "type": "function"
    },
    {
      "inputs": [
        {
          "internalType": "address",
          "name": "tokenA",
          "type": "address"
        },
        {
          "internalType": "address",
          "name": "tokenB",
          "type": "address"
        },
        {
          "internalType": "address",
          "name": "tokenToRecover",
          "type": "address"
        }
      ],
      "name": "recoverERC20",
      "outputs": [],
      "stateMutability": "nonpayable",
      "type": "function"
    },
    {
      "inputs": [
        {
          "internalType": "address",
          "name": "tokenA",
          "type": "address"
        },
        {
          "internalType": "address",
          "name": "tokenB",
          "type": "address"
        },
        {
          "internalType": "uint256",
          "name": "liquidity",
          "type": "uint256"
        },
        {
          "internalType": "uint256",
          "name": "amountAMin",
          "type": "uint256"
        },
        {
          "internalType": "uint256",
          "name": "amountBMin",
          "type": "uint256"
        },
        {
          "internalType": "address",
          "name": "to",
          "type": "address"
        },
        {
          "internalType": "uint256",
          "name": "deadline",
          "type": "uint256"
        }
      ],
      "name": "removeLiquidity",
      "outputs": [
        {
          "internalType": "uint256",
          "name": "amountA",
          "type": "uint256"
        },
        {
          "internalType": "uint256",
          "name": "amountB",
          "type": "uint256"
        }
      ],
      "stateMutability": "nonpayable",
      "type": "function"
    },
    {
      "inputs": [],
      "name": "renounceOwnership",
      "outputs": [],
      "stateMutability": "nonpayable",
      "type": "function"
    },
    {
      "inputs": [
        {
          "internalType": "address",
          "name": "",
          "type": "address"
        },
        {
          "internalType": "address",
          "name": "",
          "type": "address"
        }
      ],
      "name": "reserves",
      "outputs": [
        {
          "internalType": "uint256",
          "name": "reserveA",
          "type": "uint256"
        },
        {
          "internalType": "uint256",
          "name": "reserveB",
          "type": "uint256"
        }
      ],
      "stateMutability": "view",
      "type": "function"
    },
    {
      "inputs": [
        {
          "internalType": "uint256",
          "name": "amountIn",
          "type": "uint256"
        },
        {
          "internalType": "uint256",
          "name": "amountOutMin",
          "type": "uint256"
        },
        {
          "internalType": "address[]",
          "name": "path",
          "type": "address[]"
        },
        {
          "internalType": "address",
          "name": "to",
          "type": "address"
        },
        {
          "internalType": "uint256",
          "name": "deadline",
          "type": "uint256"
        }
      ],
      "name": "swapExactTokensForTokens",
      "outputs": [],
      "stateMutability": "nonpayable",
      "type": "function"
    },
    {
      "inputs": [],
      "name": "symbol",
      "outputs": [
        {
          "internalType": "string",
          "name": "",
          "type": "string"
        }
      ],
      "stateMutability": "view",
      "type": "function"
    },
    {
      "inputs": [],
      "name": "totalSupply",
      "outputs": [
        {
          "internalType": "uint256",
          "name": "",
          "type": "uint256"
        }
      ],
      "stateMutability": "view",
      "type": "function"
    },
    {
      "inputs": [
        {
          "internalType": "address",
          "name": "to",
          "type": "address"
        },
        {
          "internalType": "uint256",
          "name": "value",
          "type": "uint256"
        }
      ],
      "name": "transfer",
      "outputs": [
        {
          "internalType": "bool",
          "name": "",
          "type": "bool"
        }
      ],
      "stateMutability": "nonpayable",
      "type": "function"
    },
    {
      "inputs": [
        {
          "internalType": "address",
          "name": "from",
          "type": "address"
        },
        {
          "internalType": "address",
          "name": "to",
          "type": "address"
        },
        {
          "internalType": "uint256",
          "name": "value",
          "type": "uint256"
        }
      ],
      "name": "transferFrom",
      "outputs": [
        {
          "internalType": "bool",
          "name": "",
          "type": "bool"
        }
      ],
      "stateMutability": "nonpayable",
      "type": "function"
    },
    {
      "inputs": [
        {
          "internalType": "address",
          "name": "newOwner",
          "type": "address"
        }
      ],
      "name": "transferOwnership",
      "outputs": [],
      "stateMutability": "nonpayable",
      "type": "function"
    },
    {
      "inputs": [],
      "name": "withdrawETH",
      "outputs": [],
      "stateMutability": "nonpayable",
      "type": "function"
    },
    {
      "stateMutability": "payable",
      "type": "receive"
    }
  ],
  "bytecode": "0x608060405234610381576119936020813803918261001c81610386565b93849283398101031261038157516001600160a01b03811690819003610381576100466040610386565b90601282527129b4b6b83632a9bbb0b81026282a37b5b2b760711b60208301526100706040610386565b90600382526213141560ea1b6020830152801561036b57600080546001600160a01b03198116831782556001600160a01b0316907f8be0079c531659141344cd1fd0a4f28419497f9722a3daafe3b4186f6b6457e09080a381516001600160401b03811161027657600454600181811c91168015610361575b602082101461025657601f81116102fc575b50602092601f8211600114610297579281929360009261028c575b50508160011b916000199060031b1c1916176004555b80516001600160401b03811161027657600554600181811c9116801561026c575b602082101461025657601f811161020d575b50602091601f82116001146101a95791819260009261019e575b50508160011b916000199060031b1c1916176005555b6040516115e790816103ac8239f35b015190503880610179565b601f198216926005600052806000209160005b8581106101f5575083600195106101dc575b505050811b0160055561018f565b015160001960f88460031b161c191690553880806101ce565b919260206001819286850151815501940192016101bc565b60056000526020600020601f830160051c8101916020841061024c575b601f0160051c01905b818110610240575061015f565b60008155600101610233565b909150819061022a565b634e487b7160e01b600052602260045260246000fd5b90607f169061014d565b634e487b7160e01b600052604160045260246000fd5b015190503880610116565b601f198216936004600052806000209160005b8681106102e457508360019596106102cb575b505050811b0160045561012c565b015160001960f88460031b161c191690553880806102bd565b919260206001819286850151815501940192016102aa565b60046000527f8a35acfbc15ff81a39ae7d344fd709f28e8600b4aa8c65c6b64bfe7fe36bd19b601f830160051c81019160208410610357575b601f0160051c01905b81811061034b57506100fb565b6000815560010161033e565b9091508190610335565b90607f16906100e9565b631e4fbdf760e01b600052600060045260246000fd5b600080fd5b6040519190601f01601f191682016001600160401b038111838210176102765760405256fe6080604052600436101561001b575b361561001957600080fd5b005b60003560e01c8063054d50d4146110e557806306fdde0314611026578063095ea7b314610fa057806318160ddd14610f8257806323b872dd14610e95578063313ce56714610e7957806338ed173914610c7a5780633b72ab3414610b1957806370a0823114610adf578063715018a614610a865780638da5cb5b14610a5d57806395d89b4114610959578063a9059cbb14610928578063ac41865a146108d1578063ba9a7a56146108b4578063baa2abde1461065f578063d52bb6f414610627578063dd62ed3e146105d6578063e086e5ec14610527578063e8e33700146101ff578063ea4afc54146101a05763f2fde38b0361000e573461019b57602036600319011261019b5761012b611152565b61013361139c565b6001600160a01b0316801561018557600080546001600160a01b03198116831782556001600160a01b0316907f8be0079c531659141344cd1fd0a4f28419497f9722a3daafe3b4186f6b6457e09080a3005b631e4fbdf760e01b600052600060045260246000fd5b600080fd5b3461019b57604036600319011261019b576101b9611152565b6101c1611168565b9060018060a01b0316600052600660205260406000209060018060a01b03166000526020526040806000206001815491015482519182526020820152f35b3461019b5761010036600319011261019b57610219611152565b610221611168565b6044359160c4356001600160a01b038116906064359082900361019b5760e43542116105165761025184846112e4565b506001600160a01b039081166000818152600660205260409081902092861691821495919290918615610510575086905b60009160018060a01b031682526020522092835494600185019182548260001461050757879581905b600082898e8115806104ff575b1561048f57505050509a995b6102d08b30338a611316565b6001600160a01b0316966102e68c30338b611316565b8a600354928315600014610464575061030b925061030691508c9061117e565b61148f565b6103e8811115610453576103e719810190811161043d57965b871561042c578215610416576103fd988a948c946103448b600354611191565b60035580600052600160205260406000208b815401905560007fddf252ad1be2c89b69c2b068fc378daa952ba7f163c4a11628f55a4df523b3ef60208d604051908152a315610401576103a19461039a91611191565b9055611191565b90555b604080518681526020810188905290810184905233907f43c967b388d3a4ccad3f7ab80167852e322e5a3fde9893f530252281b2ae8b7090606090a4604051938493846040919493926060820195825260208201520152565b0390f35b61040f949361039a91611191565b90556103a4565b63ec442f0560e01b600052600060045260246000fd5b632f6985ef60e21b60005260046000fd5b634e487b7160e01b600052601160045260246000fd5b636bf6e15960e11b60005260046000fd5b61047d610477610489956104839461117e565b8261117e565b9261117e565b9061119e565b96610324565b6104a19261049c9161117e565b61119e565b918083116104cc57505060a43581106104bb579a996102c4565b631f4adc8160e11b60005260046000fd5b91509b506104de8261049c8a8461117e565b9b6084358d106104f057509a996102c4565b63322f3f8f60e11b8152600490fd5b5082156102b8565b809588906102ab565b90610282565b63bb1a9a5f60e01b60005260046000fd5b3461019b57600036600319011261019b5761054061139c565b4780156105c55760008080809360018060a01b038254165af13d156105c0573d67ffffffffffffffff81116105aa5760405190610587601f8201601f191660200183611205565b8152600060203d92013e5b1561059957005b6309253de360e01b60005260046000fd5b634e487b7160e01b600052604160045260246000fd5b610592565b63566143ef60e11b60005260046000fd5b3461019b57604036600319011261019b576105ef611152565b6105f7611168565b6001600160a01b039182166000908152600260209081526040808320949093168252928352819020549051908152f35b3461019b57604036600319011261019b576040610653610645611152565b61064d611168565b906113c5565b82519182526020820152f35b3461019b5760e036600319011261019b57610678611152565b610680611168565b6044359060a435906001600160a01b038216820361019b5760c4354211610516578215801561089d575b61088c5760406106ba82866112e4565b919060018060a01b0316918260005260066020528160002060009160018060a01b0316825260205220938454936001860180546003549761070d6107028a61049c8b8961117e565b9961049c848861117e565b976064358a1061087b5760843589106104bb5733156108655760003381526001602052604081205487811061084a578b9460409d94610799878e99966107a0968d8c9733835260016020520360408220558d6003540360035560408e90519081527fddf252ad1be2c89b69c2b068fc378daa952ba7f163c4a11628f55a4df523b3ef60203392a361123b565b905561123b565b90556001600160a01b031694850361082557916107c16107d0938287611361565b6001600160a01b038616611361565b85518581526020810185905260408101919091526001600160a01b03929092169133907fd765e08eef31c0983ecca03ecd166297ac485ecd5dd69e291c848f0a020333c190606090a482519182526020820152f35b61084592909161083f90826001600160a01b038916611361565b84611361565b6107d0565b63391434e360e21b8252336004526024526044879052606490fd5b634b637e8f60e11b600052600060045260246000fd5b63322f3f8f60e11b60005260046000fd5b637b26089360e01b60005260046000fd5b5033600052600160205260406000205483116106aa565b3461019b57600036600319011261019b5760206040516103e88152f35b3461019b57604036600319011261019b576108ed610645611152565b811561042c57670de0b6b3a7640000810290808204670de0b6b3a7640000149015171561043d576020916109209161119e565b604051908152f35b3461019b57604036600319011261019b5761094e610944611152565b6024359033611248565b602060405160018152f35b3461019b57600036600319011261019b5760405160006005548060011c90600181168015610a53575b602083108114610a3f57828552908115610a1b57506001146109bb575b6103fd836109af81850382611205565b60405191829182611109565b91905060056000527f036b6384b5eca791c62761152d0c79bb0604c104a5fb6f4eb0703f3154bb3db0916000905b808210610a01575090915081016020016109af61099f565b9192600181602092548385880101520191019092916109e9565b60ff191660208086019190915291151560051b840190910191506109af905061099f565b634e487b7160e01b84526022600452602484fd5b91607f1691610982565b3461019b57600036600319011261019b576000546040516001600160a01b039091168152602090f35b3461019b57600036600319011261019b57610a9f61139c565b600080546001600160a01b0319811682556001600160a01b03167f8be0079c531659141344cd1fd0a4f28419497f9722a3daafe3b4186f6b6457e08280a3005b3461019b57602036600319011261019b576001600160a01b03610b00611152565b1660005260016020526020604060002054604051908152f35b3461019b57606036600319011261019b57610b32611152565b610b3a611168565b6044356001600160a01b03811692919083900361019b57610b5961139c565b610b6381836113c5565b90929091906001600160a01b03168403610c1d575050905b6040516370a0823160e01b8152306004820152602081602481855afa908115610c1157600091610bdf575b5082811115610bce5761001992610bbc9161123b565b9060018060a01b036000541690611361565b635173843d60e01b60005260046000fd5b90506020813d602011610c09575b81610bfa60209383611205565b8101031261019b575183610ba6565b3d9150610bed565b6040513d6000823e3d90fd5b9091506001600160a01b03168203610c355790610b7b565b60405162461bcd60e51b815260206004820152601a60248201527f53696d706c65537761705f5f546f6b656e4e6f74496e506169720000000000006044820152606490fd5b3461019b5760a036600319011261019b5760443560043567ffffffffffffffff821161019b573660238301121561019b5781600401359067ffffffffffffffff821161019b573660248360051b8501011161019b57606435926001600160a01b0384169081850361019b5760843542116105165760028403610e68578315610e5257610d0860248201611227565b9360011015610e52576044610d1d9101611227565b610d2781856112e4565b506001600160a01b0390811660008181526006602052604090819020928716969187149290918315610e4c575083905b60009160018060a01b031682526020522081600014610e3e578054926001820154915b610d858386896111be565b946024358610610e2d578580948992610dd797610da6858e30903390611316565b15610e0f5790610dbc600194610dc39493611191565b855561123b565b9101555b6001600160a01b03169687611361565b604051928352602083015260408201527f1eeaa4acf3c225a4033105c2647625dbb298dec93b14e16253c4231e26c02b1d60603392a4005b610e2693610e1c91611191565b600185015561123b565b9055610dc7565b63775baed560e11b60005260046000fd5b600181015492815491610d7a565b90610d57565b634e487b7160e01b600052603260045260246000fd5b6363f473bd60e01b60005260046000fd5b3461019b57600036600319011261019b57602060405160128152f35b3461019b57606036600319011261019b57610eae611152565b610eb6611168565b6001600160a01b0382166000818152600260209081526040808320338452909152902054909260443592916000198110610ef6575b5061094e9350611248565b838110610f65578415610f4f573315610f395761094e946000526002602052604060002060018060a01b0333166000526020528360406000209103905584610eeb565b634a1406b160e11b600052600060045260246000fd5b63e602df0560e01b600052600060045260246000fd5b8390637dc7a0d960e11b6000523360045260245260445260646000fd5b3461019b57600036600319011261019b576020600354604051908152f35b3461019b57604036600319011261019b57610fb9611152565b602435903315610f4f576001600160a01b0316908115610f3957336000526002602052604060002082600052602052806040600020556040519081527f8c5be1e5ebec7d5bd14f71427d1e84f3dd0314c0f7b2291e5b200ac8c7c3b92560203392a3602060405160018152f35b3461019b57600036600319011261019b5760405160006004548060011c906001811680156110db575b602083108114610a3f57828552908115610a1b575060011461107b576103fd836109af81850382611205565b91905060046000527f8a35acfbc15ff81a39ae7d344fd709f28e8600b4aa8c65c6b64bfe7fe36bd19b916000905b8082106110c1575090915081016020016109af61099f565b9192600181602092548385880101520191019092916110a9565b91607f169161104f565b3461019b57606036600319011261019b5760206109206044356024356004356111be565b91909160208152825180602083015260005b81811061113c575060409293506000838284010152601f8019910116010190565b806020809287010151604082860101520161111b565b600435906001600160a01b038216820361019b57565b602435906001600160a01b038216820361019b57565b8181029291811591840414171561043d57565b9190820180921161043d57565b81156111a8570490565b634e487b7160e01b600052601260045260246000fd5b9182156111f457811580156111ec575b61042c57826111e3610483926111e99561117e565b92611191565b90565b5080156111ce565b63799053e760e11b60005260046000fd5b90601f8019910116810190811067ffffffffffffffff8211176105aa57604052565b356001600160a01b038116810361019b5790565b9190820391821161043d57565b6001600160a01b0316908115610865576001600160a01b0316918215610416576000828152600160205260408120548281106112ca5791604082827fddf252ad1be2c89b69c2b068fc378daa952ba7f163c4a11628f55a4df523b3ef9587602096526001865203828220558681526001845220818154019055604051908152a3565b916064928463391434e360e21b8452600452602452604452fd5b6001600160a01b038281169082168082146113065710156113025791565b9091565b62cd7c0360e51b60005260046000fd5b6040516323b872dd60e01b60208201526001600160a01b03928316602482015292909116604483015260648083019390935291815261135f9161135a608483611205565b611434565b565b60405163a9059cbb60e01b60208201526001600160a01b03909216602483015260448083019390935291815261135f9161135a606483611205565b6000546001600160a01b031633036113b057565b63118cdaa760e01b6000523360045260246000fd5b906040906113d381846112e4565b506001600160a01b03908116600081815260066020528490209185161493909190841561142c5750905b60009160018060a01b03168252602052209060001461142157600181549101549091565b600181015490549091565b9050906113fd565b906000602091828151910182855af115610c11576000513d61148657506001600160a01b0381163b155b6114655750565b635274afe760e01b60009081526001600160a01b0391909116600452602490fd5b6001141561145e565b60018111156111e957806001600160801b8210156115a0575b600482600160401b611552941015611593575b640100000000811015611586575b62010000811015611579575b61010081101561156d575b6010811015611561575b1015611559575b60030260011c611501818461119e565b0160011c61150f818461119e565b0160011c61151d818461119e565b0160011c61152b818461119e565b0160011c611539818461119e565b0160011c611547818461119e565b0160011c809261119e565b8111900390565b60011b6114f1565b811c9160021b916114ea565b60081c91811b916114e0565b60101c9160081b916114d5565b60201c9160101b916114c9565b60401c9160201b916114bb565b5050608081901c600160401b6114a856fea264697066735822122046e3879f0b67b4d42d39bcce96be7bcda54ab5c1638905edd7224a89d786393864736f6c634300081b0033",
  "linkReferences": {},
  "deployedLinkReferences": {}
}