{
  "_format": "hh-sol-artifact-1",
  "contractName": "SimpleSwap",
  "sourceName": "contracts/SimpleSwap.sol",
  "abi": [
    {
      "inputs": [
        {
          "internalType": "address",
          "name": "initialOwner",
          "type": "address"
        }
      ],
      "stateMutability": "nonpayable",
      "type": "constructor"
    },
    {
      "inputs": [
        {
          "internalType": "address",
          "name": "spender",
          "type": "address"
        },
        {
          "internalType": "uint256",
          "name": "allowance",
          "type": "uint256"
        },
        {
          "internalType": "uint256",
          "name": "needed",
          "type": "uint256"
        }
      ],
      "name": "ERC20InsufficientAllowance",
      "type": "error"
    },
    {
      "inputs": [
        {
          "internalType": "address",
          "name": "sender",
          "type": "address"
        },
        {
          "internalType": "uint256",
          "name": "balance",
          "type": "uint256"
        },
        {
          "internalType": "uint256",
          "name": "needed",
          "type": "uint256"
        }
      ],
      "name": "ERC20InsufficientBalance",
      "type": "error"
    },
    {
      "inputs": [
        {
          "internalType": "address",
          "name": "approver",
          "type": "address"
        }
      ],
      "name": "ERC20InvalidApprover",
      "type": "error"
    },
    {
      "inputs": [
        {
          "internalType": "address",
          "name": "receiver",
          "type": "address"
        }
      ],
      "name": "ERC20InvalidReceiver",
      "type": "error"
    },
    {
      "inputs": [
        {
          "internalType": "address",
          "name": "sender",
          "type": "address"
        }
      ],
      "name": "ERC20InvalidSender",
      "type": "error"
    },
    {
      "inputs": [
        {
          "internalType": "address",
          "name": "spender",
          "type": "address"
        }
      ],
      "name": "ERC20InvalidSpender",
      "type": "error"
    },
    {
      "inputs": [
        {
          "internalType": "address",
          "name": "owner",
          "type": "address"
        }
      ],
      "name": "OwnableInvalidOwner",
      "type": "error"
    },
    {
      "inputs": [
        {
          "internalType": "address",
          "name": "account",
          "type": "address"
        }
      ],
      "name": "OwnableUnauthorizedAccount",
      "type": "error"
    },
    {
      "inputs": [
        {
          "internalType": "address",
          "name": "token",
          "type": "address"
        }
      ],
      "name": "SafeERC20FailedOperation",
      "type": "error"
    },
    {
      "inputs": [],
      "name": "SimpleSwap__EthTransferFailed",
      "type": "error"
    },
    {
      "inputs": [],
      "name": "SimpleSwap__Expired",
      "type": "error"
    },
    {
      "inputs": [],
      "name": "SimpleSwap__IdenticalTokens",
      "type": "error"
    },
    {
      "inputs": [],
      "name": "SimpleSwap__InsufficientAllowance",
      "type": "error"
    },
    {
      "inputs": [],
      "name": "SimpleSwap__InsufficientAmountA",
      "type": "error"
    },
    {
      "inputs": [],
      "name": "SimpleSwap__InsufficientAmountB",
      "type": "error"
    },
    {
      "inputs": [],
      "name": "SimpleSwap__InsufficientBalance",
      "type": "error"
    },
    {
      "inputs": [],
      "name": "SimpleSwap__InsufficientLiquidity",
      "type": "error"
    },
    {
      "inputs": [],
      "name": "SimpleSwap__InsufficientOutputAmount",
      "type": "error"
    },
    {
      "inputs": [],
      "name": "SimpleSwap__InvalidLiquidity",
      "type": "error"
    },
    {
      "inputs": [],
      "name": "SimpleSwap__InvalidPath",
      "type": "error"
    },
    {
      "inputs": [],
      "name": "SimpleSwap__NoEthToWithdraw",
      "type": "error"
    },
    {
      "inputs": [],
      "name": "SimpleSwap__NoTokensToRecover",
      "type": "error"
    },
    {
      "inputs": [],
      "name": "SimpleSwap__ZeroInitialLiquidity",
      "type": "error"
    },
    {
      "inputs": [],
      "name": "SimpleSwap__ZeroInputAmount",
      "type": "error"
    },
    {
      "anonymous": false,
      "inputs": [
        {
          "indexed": true,
          "internalType": "address",
          "name": "owner",
          "type": "address"
        },
        {
          "indexed": true,
          "internalType": "address",
          "name": "spender",
          "type": "address"
        },
        {
          "indexed": false,
          "internalType": "uint256",
          "name": "value",
          "type": "uint256"
        }
      ],
      "name": "Approval",
      "type": "event"
    },
    {
      "anonymous": false,
      "inputs": [
        {
          "indexed": true,
          "internalType": "address",
          "name": "tokenA",
          "type": "address"
        },
        {
          "indexed": true,
          "internalType": "address",
          "name": "tokenB",
          "type": "address"
        },
        {
          "indexed": false,
          "internalType": "uint256",
          "name": "amountA",
          "type": "uint256"
        },
        {
          "indexed": false,
          "internalType": "uint256",
          "name": "amountB",
          "type": "uint256"
        },
        {
          "indexed": false,
          "internalType": "uint256",
          "name": "liquidity",
          "type": "uint256"
        }
      ],
      "name": "LiquidityAdded",
      "type": "event"
    },
    {
      "anonymous": false,
      "inputs": [
        {
          "indexed": true,
          "internalType": "address",
          "name": "tokenA",
          "type": "address"
        },
        {
          "indexed": true,
          "internalType": "address",
          "name": "tokenB",
          "type": "address"
        },
        {
          "indexed": false,
          "internalType": "uint256",
          "name": "amountA",
          "type": "uint256"
        },
        {
          "indexed": false,
          "internalType": "uint256",
          "name": "amountB",
          "type": "uint256"
        },
        {
          "indexed": false,
          "internalType": "uint256",
          "name": "liquidity",
          "type": "uint256"
        }
      ],
      "name": "LiquidityRemoved",
      "type": "event"
    },
    {
      "anonymous": false,
      "inputs": [
        {
          "indexed": true,
          "internalType": "address",
          "name": "previousOwner",
          "type": "address"
        },
        {
          "indexed": true,
          "internalType": "address",
          "name": "newOwner",
          "type": "address"
        }
      ],
      "name": "OwnershipTransferred",
      "type": "event"
    },
    {
      "anonymous": false,
      "inputs": [
        {
          "indexed": true,
          "internalType": "address",
          "name": "tokenIn",
          "type": "address"
        },
        {
          "indexed": true,
          "internalType": "address",
          "name": "tokenOut",
          "type": "address"
        },
        {
          "indexed": false,
          "internalType": "uint256",
          "name": "amountIn",
          "type": "uint256"
        },
        {
          "indexed": false,
          "internalType": "uint256",
          "name": "amountOut",
          "type": "uint256"
        },
        {
          "indexed": true,
          "internalType": "address",
          "name": "to",
          "type": "address"
        }
      ],
      "name": "Swapped",
      "type": "event"
    },
    {
      "anonymous": false,
      "inputs": [
        {
          "indexed": true,
          "internalType": "address",
          "name": "from",
          "type": "address"
        },
        {
          "indexed": true,
          "internalType": "address",
          "name": "to",
          "type": "address"
        },
        {
          "indexed": false,
          "internalType": "uint256",
          "name": "value",
          "type": "uint256"
        }
      ],
      "name": "Transfer",
      "type": "event"
    },
    {
      "inputs": [],
      "name": "MINIMUM_LIQUIDITY",
      "outputs": [
        {
          "internalType": "uint256",
          "name": "",
          "type": "uint256"
        }
      ],
      "stateMutability": "view",
      "type": "function"
    },
    {
      "inputs": [
        {
          "internalType": "address",
          "name": "tokenA",
          "type": "address"
        },
        {
          "internalType": "address",
          "name": "tokenB",
          "type": "address"
        },
        {
          "internalType": "uint256",
          "name": "amountADesired",
          "type": "uint256"
        },
        {
          "internalType": "uint256",
          "name": "amountBDesired",
          "type": "uint256"
        },
        {
          "internalType": "uint256",
          "name": "amountAMin",
          "type": "uint256"
        },
        {
          "internalType": "uint256",
          "name": "amountBMin",
          "type": "uint256"
        },
        {
          "internalType": "address",
          "name": "to",
          "type": "address"
        },
        {
          "internalType": "uint256",
          "name": "deadline",
          "type": "uint256"
        }
      ],
      "name": "addLiquidity",
      "outputs": [
        {
          "internalType": "uint256",
          "name": "amountA",
          "type": "uint256"
        },
        {
          "internalType": "uint256",
          "name": "amountB",
          "type": "uint256"
        },
        {
          "internalType": "uint256",
          "name": "liquidity",
          "type": "uint256"
        }
      ],
      "stateMutability": "nonpayable",
      "type": "function"
    },
    {
      "inputs": [
        {
          "internalType": "address",
          "name": "owner",
          "type": "address"
        },
        {
          "internalType": "address",
          "name": "spender",
          "type": "address"
        }
      ],
      "name": "allowance",
      "outputs": [
        {
          "internalType": "uint256",
          "name": "",
          "type": "uint256"
        }
      ],
      "stateMutability": "view",
      "type": "function"
    },
    {
      "inputs": [
        {
          "internalType": "address",
          "name": "spender",
          "type": "address"
        },
        {
          "internalType": "uint256",
          "name": "value",
          "type": "uint256"
        }
      ],
      "name": "approve",
      "outputs": [
        {
          "internalType": "bool",
          "name": "",
          "type": "bool"
        }
      ],
      "stateMutability": "nonpayable",
      "type": "function"
    },
    {
      "inputs": [
        {
          "internalType": "address",
          "name": "account",
          "type": "address"
        }
      ],
      "name": "balanceOf",
      "outputs": [
        {
          "internalType": "uint256",
          "name": "",
          "type": "uint256"
        }
      ],
      "stateMutability": "view",
      "type": "function"
    },
    {
      "inputs": [],
      "name": "decimals",
      "outputs": [
        {
          "internalType": "uint8",
          "name": "",
          "type": "uint8"
        }
      ],
      "stateMutability": "view",
      "type": "function"
    },
    {
      "inputs": [
        {
          "internalType": "uint256",
          "name": "amountIn",
          "type": "uint256"
        },
        {
          "internalType": "uint256",
          "name": "reserveIn",
          "type": "uint256"
        },
        {
          "internalType": "uint256",
          "name": "reserveOut",
          "type": "uint256"
        }
      ],
      "name": "getAmountOut",
      "outputs": [
        {
          "internalType": "uint256",
          "name": "amountOut",
          "type": "uint256"
        }
      ],
      "stateMutability": "pure",
      "type": "function"
    },
    {
      "inputs": [
        {
          "internalType": "address",
          "name": "tokenA",
          "type": "address"
        },
        {
          "internalType": "address",
          "name": "tokenB",
          "type": "address"
        }
      ],
      "name": "getPrice",
      "outputs": [
        {
          "internalType": "uint256",
          "name": "price",
          "type": "uint256"
        }
      ],
      "stateMutability": "view",
      "type": "function"
    },
    {
      "inputs": [
        {
          "internalType": "address",
          "name": "_tokenA",
          "type": "address"
        },
        {
          "internalType": "address",
          "name": "_tokenB",
          "type": "address"
        }
      ],
      "name": "getReserves",
      "outputs": [
        {
          "internalType": "uint256",
          "name": "reserveA",
          "type": "uint256"
        },
        {
          "internalType": "uint256",
          "name": "reserveB",
          "type": "uint256"
        }
      ],
      "stateMutability": "view",
      "type": "function"
    },
    {
      "inputs": [],
      "name": "name",
      "outputs": [
        {
          "internalType": "string",
          "name": "",
          "type": "string"
        }
      ],
      "stateMutability": "view",
      "type": "function"
    },
    {
      "inputs": [],
      "name": "owner",
      "outputs": [
        {
          "internalType": "address",
          "name": "",
          "type": "address"
        }
      ],
      "stateMutability": "view",
      "type": "function"
    },
    {
      "inputs": [
        {
          "internalType": "address",
          "name": "tokenAddress",
          "type": "address"
        }
      ],
      "name": "recoverERC20",
      "outputs": [],
      "stateMutability": "nonpayable",
      "type": "function"
    },
    {
      "inputs": [
        {
          "internalType": "address",
          "name": "tokenA",
          "type": "address"
        },
        {
          "internalType": "address",
          "name": "tokenB",
          "type": "address"
        },
        {
          "internalType": "uint256",
          "name": "liquidity",
          "type": "uint256"
        },
        {
          "internalType": "uint256",
          "name": "amountAMin",
          "type": "uint256"
        },
        {
          "internalType": "uint256",
          "name": "amountBMin",
          "type": "uint256"
        },
        {
          "internalType": "address",
          "name": "to",
          "type": "address"
        },
        {
          "internalType": "uint256",
          "name": "deadline",
          "type": "uint256"
        }
      ],
      "name": "removeLiquidity",
      "outputs": [
        {
          "internalType": "uint256",
          "name": "amountA",
          "type": "uint256"
        },
        {
          "internalType": "uint256",
          "name": "amountB",
          "type": "uint256"
        }
      ],
      "stateMutability": "nonpayable",
      "type": "function"
    },
    {
      "inputs": [],
      "name": "renounceOwnership",
      "outputs": [],
      "stateMutability": "nonpayable",
      "type": "function"
    },
    {
      "inputs": [
        {
          "internalType": "address",
          "name": "",
          "type": "address"
        },
        {
          "internalType": "address",
          "name": "",
          "type": "address"
        }
      ],
      "name": "reserves",
      "outputs": [
        {
          "internalType": "uint256",
          "name": "reserveA",
          "type": "uint256"
        },
        {
          "internalType": "uint256",
          "name": "reserveB",
          "type": "uint256"
        }
      ],
      "stateMutability": "view",
      "type": "function"
    },
    {
      "inputs": [
        {
          "internalType": "uint256",
          "name": "amountIn",
          "type": "uint256"
        },
        {
          "internalType": "uint256",
          "name": "amountOutMin",
          "type": "uint256"
        },
        {
          "internalType": "address[]",
          "name": "path",
          "type": "address[]"
        },
        {
          "internalType": "address",
          "name": "to",
          "type": "address"
        },
        {
          "internalType": "uint256",
          "name": "deadline",
          "type": "uint256"
        }
      ],
      "name": "swapExactTokensForTokens",
      "outputs": [],
      "stateMutability": "nonpayable",
      "type": "function"
    },
    {
      "inputs": [],
      "name": "symbol",
      "outputs": [
        {
          "internalType": "string",
          "name": "",
          "type": "string"
        }
      ],
      "stateMutability": "view",
      "type": "function"
    },
    {
      "inputs": [],
      "name": "totalSupply",
      "outputs": [
        {
          "internalType": "uint256",
          "name": "",
          "type": "uint256"
        }
      ],
      "stateMutability": "view",
      "type": "function"
    },
    {
      "inputs": [
        {
          "internalType": "address",
          "name": "to",
          "type": "address"
        },
        {
          "internalType": "uint256",
          "name": "value",
          "type": "uint256"
        }
      ],
      "name": "transfer",
      "outputs": [
        {
          "internalType": "bool",
          "name": "",
          "type": "bool"
        }
      ],
      "stateMutability": "nonpayable",
      "type": "function"
    },
    {
      "inputs": [
        {
          "internalType": "address",
          "name": "from",
          "type": "address"
        },
        {
          "internalType": "address",
          "name": "to",
          "type": "address"
        },
        {
          "internalType": "uint256",
          "name": "value",
          "type": "uint256"
        }
      ],
      "name": "transferFrom",
      "outputs": [
        {
          "internalType": "bool",
          "name": "",
          "type": "bool"
        }
      ],
      "stateMutability": "nonpayable",
      "type": "function"
    },
    {
      "inputs": [
        {
          "internalType": "address",
          "name": "newOwner",
          "type": "address"
        }
      ],
      "name": "transferOwnership",
      "outputs": [],
      "stateMutability": "nonpayable",
      "type": "function"
    },
    {
      "inputs": [],
      "name": "withdrawETH",
      "outputs": [],
      "stateMutability": "nonpayable",
      "type": "function"
    },
    {
      "stateMutability": "payable",
      "type": "receive"
    }
  ],
  "bytecode": "0x608060405234610381576119106020813803918261001c81610386565b93849283398101031261038157516001600160a01b03811690819003610381576100466040610386565b90601282527129b4b6b83632a9bbb0b81026282a37b5b2b760711b60208301526100706040610386565b90600382526213141560ea1b6020830152801561036b57600080546001600160a01b03198116831782556001600160a01b0316907f8be0079c531659141344cd1fd0a4f28419497f9722a3daafe3b4186f6b6457e09080a381516001600160401b03811161027657600454600181811c91168015610361575b602082101461025657601f81116102fc575b50602092601f8211600114610297579281929360009261028c575b50508160011b916000199060031b1c1916176004555b80516001600160401b03811161027657600554600181811c9116801561026c575b602082101461025657601f811161020d575b50602091601f82116001146101a95791819260009261019e575b50508160011b916000199060031b1c1916176005555b60405161156490816103ac8239f35b015190503880610179565b601f198216926005600052806000209160005b8581106101f5575083600195106101dc575b505050811b0160055561018f565b015160001960f88460031b161c191690553880806101ce565b919260206001819286850151815501940192016101bc565b60056000526020600020601f830160051c8101916020841061024c575b601f0160051c01905b818110610240575061015f565b60008155600101610233565b909150819061022a565b634e487b7160e01b600052602260045260246000fd5b90607f169061014d565b634e487b7160e01b600052604160045260246000fd5b015190503880610116565b601f198216936004600052806000209160005b8681106102e457508360019596106102cb575b505050811b0160045561012c565b015160001960f88460031b161c191690553880806102bd565b919260206001819286850151815501940192016102aa565b60046000527f8a35acfbc15ff81a39ae7d344fd709f28e8600b4aa8c65c6b64bfe7fe36bd19b601f830160051c81019160208410610357575b601f0160051c01905b81811061034b57506100fb565b6000815560010161033e565b9091508190610335565b90607f16906100e9565b631e4fbdf760e01b600052600060045260246000fd5b600080fd5b6040519190601f01601f191682016001600160401b038111838210176102765760405256fe6080604052600436101561001b575b361561001957600080fd5b005b60003560e01c8063054d50d414610fef57806306fdde0314610f30578063095ea7b314610eaa57806318160ddd14610e8c57806323b872dd14610d9f578063313ce56714610d8357806338ed173914610bd357806370a0823114610b99578063715018a614610b405780638da5cb5b14610b1757806395d89b4114610a135780639e8c708e1461094c578063a9059cbb1461091b578063ac41865a146108a4578063ba9a7a5614610887578063baa2abde1461062a578063d52bb6f4146105f2578063dd62ed3e146105a1578063e086e5ec146104f2578063e8e33700146101ff578063ea4afc54146101a05763f2fde38b0361000e573461019b57602036600319011261019b5761012b61105c565b6101336111f8565b6001600160a01b0316801561018557600080546001600160a01b03198116831782556001600160a01b0316907f8be0079c531659141344cd1fd0a4f28419497f9722a3daafe3b4186f6b6457e09080a3005b631e4fbdf760e01b600052600060045260246000fd5b600080fd5b3461019b57604036600319011261019b576101b961105c565b6101c1611072565b9060018060a01b0316600052600660205260406000209060018060a01b03166000526020526040806000206001815491015482519182526020820152f35b3461019b5761010036600319011261019b5761021961105c565b610221611072565b608435916064359160c4356001600160a01b03811692916044359160a435919085900361019b5760e43542116104e1576001600160a01b0381811693908516928385146104d1576000858510156104b657508360005260066020526040600020856000526020526040600020915b8254916001840154916003546000901560001461045e5750999a5b8a1061044d578a1061043c5788906102c48230338961136d565b6102d08b30338a61136d565b60035492836104055750506102ef9150896102ea91611088565b61140c565b6103e88111156103f4576103e71981019081116103de57945b86156103c8578761036d938a926103c4996103258a60035461109b565b60035580600052600160205260406000208a815401905560007fddf252ad1be2c89b69c2b068fc378daa952ba7f163c4a11628f55a4df523b3ef60206040518d8152a3611304565b60408051868152602081018890529081018490527f4a1a2a6176e9646d9e3157f7c2ab3c499f18337c0b0828cfb28e0a61de4a11f790606090a3604051938493846040919493926060820195825260208201520152565b0390f35b63ec442f0560e01b600052600060045260246000fd5b634e487b7160e01b600052601160045260246000fd5b636bf6e15960e11b60005260046000fd5b61041e610419916104198661042596611088565b6110a8565b938c611088565b8082101561043557505b94610308565b905061042f565b631f4adc8160e11b60005260046000fd5b63322f3f8f60e11b60005260046000fd5b9a61046d856104198685611088565b9b818d11610485575050818b1061043c57999a6102aa565b91509a5061049783610419868e611088565b908c82106104a75750999a6102aa565b63322f3f8f60e11b8152600490fd5b8086604092526006602052818120868252602052209161028f565b62cd7c0360e51b60005260046000fd5b63bb1a9a5f60e01b60005260046000fd5b3461019b57600036600319011261019b5761050b6111f8565b4780156105905760008080809360018060a01b038254165af13d1561058b573d67ffffffffffffffff81116105755760405190610552601f8201601f191660200183611115565b8152600060203d92013e5b1561056457005b6309253de360e01b60005260046000fd5b634e487b7160e01b600052604160045260246000fd5b61055d565b63566143ef60e11b60005260046000fd5b3461019b57604036600319011261019b576105ba61105c565b6105c2611072565b6001600160a01b039182166000908152600260209081526040808320949093168252928352819020549051908152f35b3461019b57604036600319011261019b57604061061e61061061105c565b610618611072565b90611263565b82519182526020820152f35b3461019b5760e036600319011261019b5761064361105c565b61064b611072565b6044359160a4356001600160a01b038116810361019b5760c43542116104e1576001600160a01b0383811691908316908183146104d1578282106000811561086c57508260005260066020526040600020846000526020526040600020905b87158015610855575b610844571561083d57845b600354966106e36106d48961041986548d611088565b9861041960018601548c611088565b9687906001600160a01b03168603610834575b50331561081e576000338152600160205260408120548a8110610803578a9033835260016020520360408220558960035403600355806040518b81527fddf252ad1be2c89b69c2b068fc378daa952ba7f163c4a11628f55a4df523b3ef60203392a360643589106104a75760843588106107f45750867fbc7d19d505c7ec4db83f3b51f19fb98c4c8a99922e7839d1ee608dfbee29501b946107b66107e59560409c956107c7956107a68e61114b565b906107b08761114b565b92611304565b6107c18a8289611221565b87611221565b87519182918789846040919493926060820195825260208201520152565b0390a382519182526020820152f35b631f4adc8160e11b8152600490fd5b63391434e360e21b82523360045260245260448a9052606490fd5b634b637e8f60e11b600052600060045260246000fd5b979650896106f6565b85946106be565b637b26089360e01b60005260046000fd5b5033600052600160205260406000205488116106b3565b808560409252600660205281812085825260205220906106aa565b3461019b57600036600319011261019b5760206040516103e88152f35b3461019b57604036600319011261019b576108c061061061105c565b81158015610913575b61090257670de0b6b3a7640000810290808204670de0b6b3a764000014901517156103de576020916108fa916110a8565b604051908152f35b632f6985ef60e21b60005260046000fd5b5080156108c9565b3461019b57604036600319011261019b5761094161093761105c565b602435903361115c565b602060405160018152f35b3461019b57602036600319011261019b5761096561105c565b61096d6111f8565b6040516370a0823160e01b81523060048201526001600160a01b039190911690602081602481855afa908115610a07576000916109d5575b5080156109c457600054610019926001600160a01b0390911690611221565b635173843d60e01b60005260046000fd5b90506020813d6020116109ff575b816109f060209383611115565b8101031261019b5751826109a5565b3d91506109e3565b6040513d6000823e3d90fd5b3461019b57600036600319011261019b5760405160006005548060011c90600181168015610b0d575b602083108114610af957828552908115610ad55750600114610a75575b6103c483610a6981850382611115565b60405191829182611013565b91905060056000527f036b6384b5eca791c62761152d0c79bb0604c104a5fb6f4eb0703f3154bb3db0916000905b808210610abb57509091508101602001610a69610a59565b919260018160209254838588010152019101909291610aa3565b60ff191660208086019190915291151560051b84019091019150610a699050610a59565b634e487b7160e01b84526022600452602484fd5b91607f1691610a3c565b3461019b57600036600319011261019b576000546040516001600160a01b039091168152602090f35b3461019b57600036600319011261019b57610b596111f8565b600080546001600160a01b0319811682556001600160a01b03167f8be0079c531659141344cd1fd0a4f28419497f9722a3daafe3b4186f6b6457e08280a3005b3461019b57602036600319011261019b576001600160a01b03610bba61105c565b1660005260016020526020604060002054604051908152f35b3461019b5760a036600319011261019b5760443560043567ffffffffffffffff821161019b573660238301121561019b57816004013567ffffffffffffffff811161019b573660248260051b8501011161019b576064356001600160a01b0381169390919084830361019b5760843542116104e15760028203610d72578115610d5c57610c6260248201611137565b9160011015610d5c576044610c779101611137565b6001600160a01b038082169490831693918486146104d157610ca3610c9c8286611263565b90846110c8565b906024358210610d4b5781604094610d1f7f268a93038deccaf0b954c94b2c84d566a2176cb264383b94f7f3843c63c198f797610d2594610ce788308d339061136d565b87610cf18661114b565b918d60008e82811015610d325791505060005260066020528d8b600020906000526020528a60002093611304565b88611221565b82519182526020820152a4005b8d92825260066020528282209082526020522093611304565b63775baed560e11b60005260046000fd5b634e487b7160e01b600052603260045260246000fd5b6363f473bd60e01b60005260046000fd5b3461019b57600036600319011261019b57602060405160128152f35b3461019b57606036600319011261019b57610db861105c565b610dc0611072565b6001600160a01b0382166000818152600260209081526040808320338452909152902054909260443592916000198110610e00575b50610941935061115c565b838110610e6f578415610e59573315610e4357610941946000526002602052604060002060018060a01b0333166000526020528360406000209103905584610df5565b634a1406b160e11b600052600060045260246000fd5b63e602df0560e01b600052600060045260246000fd5b8390637dc7a0d960e11b6000523360045260245260445260646000fd5b3461019b57600036600319011261019b576020600354604051908152f35b3461019b57604036600319011261019b57610ec361105c565b602435903315610e59576001600160a01b0316908115610e4357336000526002602052604060002082600052602052806040600020556040519081527f8c5be1e5ebec7d5bd14f71427d1e84f3dd0314c0f7b2291e5b200ac8c7c3b92560203392a3602060405160018152f35b3461019b57600036600319011261019b5760405160006004548060011c90600181168015610fe5575b602083108114610af957828552908115610ad55750600114610f85576103c483610a6981850382611115565b91905060046000527f8a35acfbc15ff81a39ae7d344fd709f28e8600b4aa8c65c6b64bfe7fe36bd19b916000905b808210610fcb57509091508101602001610a69610a59565b919260018160209254838588010152019101909291610fb3565b91607f1691610f59565b3461019b57606036600319011261019b5760206108fa6044356024356004356110c8565b91909160208152825180602083015260005b818110611046575060409293506000838284010152601f8019910116010190565b8060208092870101516040828601015201611025565b600435906001600160a01b038216820361019b57565b602435906001600160a01b038216820361019b57565b818102929181159184041417156103de57565b919082018092116103de57565b81156110b2570490565b634e487b7160e01b600052601260045260246000fd5b91821561110457811580156110fc575b61090257826110ed6110f3926110f995611088565b9261109b565b906110a8565b90565b5080156110d8565b63799053e760e11b60005260046000fd5b90601f8019910116810190811067ffffffffffffffff82111761057557604052565b356001600160a01b038116810361019b5790565b600160ff1b81146103de5760000390565b6001600160a01b031690811561081e576001600160a01b03169182156103c8576000828152600160205260408120548281106111de5791604082827fddf252ad1be2c89b69c2b068fc378daa952ba7f163c4a11628f55a4df523b3ef9587602096526001865203828220558681526001845220818154019055604051908152a3565b916064928463391434e360e21b8452600452602452604452fd5b6000546001600160a01b0316330361120c57565b63118cdaa760e01b6000523360045260246000fd5b60405163a9059cbb60e01b60208201526001600160a01b0390921660248301526044808301939093529181526112619161125c606483611115565b6113b1565b565b6001600160a01b0381811692908116908382146104d15760409184109081156112e257835b6001600160a01b03166000818152600660205284902090949092156112da5750905b60009160018060a01b031682526020522091146000146112cf57600181549101549091565b600181015490549091565b9050906112aa565b80611288565b919091600083820193841291129080158216911516176103de57565b9293926001600160a01b03808216929081168381146104d15783101561136657505b6001600160a01b031603611354578161134560019261135094546112e8565b8155019182546112e8565b9055565b918161134560019261135094546112e8565b9050611326565b6040516323b872dd60e01b60208201526001600160a01b0392831660248201529290911660448301526064808301939093529181526112619161125c608483611115565b906000602091828151910182855af115610a07576000513d61140357506001600160a01b0381163b155b6113e25750565b635274afe760e01b60009081526001600160a01b0391909116600452602490fd5b600114156113db565b60018111156110f957806001600160801b82101561151d575b600482600160401b6114cf941015611510575b640100000000811015611503575b620100008110156114f6575b6101008110156114ea575b60108110156114de575b10156114d6575b60030260011c61147e81846110a8565b0160011c61148c81846110a8565b0160011c61149a81846110a8565b0160011c6114a881846110a8565b0160011c6114b681846110a8565b0160011c6114c481846110a8565b0160011c80926110a8565b8111900390565b60011b61146e565b811c9160021b91611467565b60081c91811b9161145d565b60101c9160081b91611452565b60201c9160101b91611446565b60401c9160201b91611438565b5050608081901c600160401b61142556fea264697066735822122062d53515b172917429e35ed6be623ebbf7ba79090079fb88a6e8106e0f10e7d264736f6c634300081b0033",
  "linkReferences": {},
  "deployedLinkReferences": {}
}